{
  "_format": "hh-sol-artifact-1",
  "contractName": "Freezer",
  "sourceName": "contracts/Freezer.sol",
  "abi": [
    {
      "inputs": [
        {
          "internalType": "address",
          "name": "_token",
          "type": "address"
        },
        {
          "internalType": "address",
          "name": "_tsm",
          "type": "address"
        }
      ],
      "stateMutability": "nonpayable",
      "type": "constructor"
    },
    {
      "inputs": [
        {
          "internalType": "address",
          "name": "claimer",
          "type": "address"
        }
      ],
      "name": "addClaimer",
      "outputs": [],
      "stateMutability": "nonpayable",
      "type": "function"
    },
    {
      "inputs": [
        {
          "internalType": "address",
          "name": "newTSM",
          "type": "address"
        }
      ],
      "name": "changeTSM",
      "outputs": [],
      "stateMutability": "nonpayable",
      "type": "function"
    },
    {
      "inputs": [
        {
          "internalType": "address",
          "name": "",
          "type": "address"
        }
      ],
      "name": "claimList",
      "outputs": [
        {
          "internalType": "uint256",
          "name": "",
          "type": "uint256"
        }
      ],
      "stateMutability": "view",
      "type": "function"
    },
    {
      "inputs": [],
      "name": "tokenAddress",
      "outputs": [
        {
          "internalType": "address",
          "name": "",
          "type": "address"
        }
      ],
      "stateMutability": "view",
      "type": "function"
    },
    {
      "inputs": [],
      "name": "withdraw",
      "outputs": [],
      "stateMutability": "nonpayable",
      "type": "function"
    }
  ],
  "bytecode": "0x60806040526004805460ff60a01b1916905534801561001d57600080fd5b5060405161082238038061082283398101604081905261003c91610099565b600080546001600160a01b039384166001600160a01b03199182161790915560038054929093169181169190911790915560048054909116331790556100cc565b80516001600160a01b038116811461009457600080fd5b919050565b600080604083850312156100ac57600080fd5b6100b58361007d565b91506100c36020840161007d565b90509250929050565b610747806100db6000396000f3fe608060405234801561001057600080fd5b50600436106100575760003560e01c80632ea664011461005c5780633ccfd60b1461007157806345f60e03146100795780639d76ea58146100ac578063fc308a57146100d7575b600080fd5b61006f61006a366004610661565b6100ea565b005b61006f6103bf565b610099610087366004610661565b60016020526000908152604090205481565b6040519081526020015b60405180910390f35b6000546100bf906001600160a01b031681565b6040516001600160a01b0390911681526020016100a3565b61006f6100e5366004610661565b6105ef565b60035433906001600160a01b0316811461013c5760405162461bcd60e51b815260206004820152600e60248201526d596f75277265206e6f742054534d60901b60448201526064015b60405180910390fd5b600454600160a01b900460ff16156101885760405162461bcd60e51b815260206004820152600f60248201526e53746f70207265456e7472616e637960881b6044820152606401610133565b6004805460ff60a01b1916600160a01b178155600254600080546040516370a0823160e01b8152309481019490945290926001600160a01b03909116906370a082319060240160206040518083038186803b1580156101e657600080fd5b505afa1580156101fa573d6000803e3d6000fd5b505050506040513d601f19601f8201168201806040525081019061021e91906106b3565b61022891906106e4565b116102755760405162461bcd60e51b815260206004820152601c60248201527f5573657220686173206e6f20746f6b656e7320666f7220436c61696d000000006044820152606401610133565b600254600080546040516370a0823160e01b81523060048201529192916001600160a01b03909116906370a082319060240160206040518083038186803b1580156102bf57600080fd5b505afa1580156102d3573d6000803e3d6000fd5b505050506040513d601f19601f820116820180604052508101906102f791906106b3565b61030191906106e4565b6000546040516370a0823160e01b81523060048201529192506001600160a01b0316906370a082319060240160206040518083038186803b15801561034557600080fd5b505afa158015610359573d6000803e3d6000fd5b505050506040513d601f19601f8201168201806040525081019061037d91906106b3565b6002556001600160a01b038316600090815260016020526040812080548392906103a89084906106cc565b90915550506004805460ff60a01b19169055505050565b3360008181526001602052604090205461041b5760405162461bcd60e51b815260206004820152601b60248201527f596f7520686176656e277420746f6b656e20666f7220636c61696d00000000006044820152606401610133565b600454600160a01b900460ff16156104675760405162461bcd60e51b815260206004820152600f60248201526e53746f70207265456e7472616e637960881b6044820152606401610133565b6004805460ff60a01b1916600160a01b178155600354604051631e9d48cf60e01b815233928101929092526000916001600160a01b0390911690631e9d48cf9060240160206040518083038186803b1580156104c257600080fd5b505afa1580156104d6573d6000803e3d6000fd5b505050506040513d601f19601f820116820180604052508101906104fa9190610691565b9050806105405760405162461bcd60e51b81526020600482015260146024820152731e5bdd48185c99481b9bdd081d995c9a599a595960621b6044820152606401610133565b336000818152600160205260408082208054908390559154905163a9059cbb60e01b815260048101939093526024830182905290916001600160a01b039091169063a9059cbb90604401602060405180830381600087803b1580156105a457600080fd5b505af11580156105b8573d6000803e3d6000fd5b505050506040513d601f19601f820116820180604052508101906105dc9190610691565b50506004805460ff60a01b191690555050565b60045433906001600160a01b0316811461063e5760405162461bcd60e51b815260206004820152601060248201526f2cb7ba93b932903737ba1020b236b4b760811b6044820152606401610133565b50600380546001600160a01b0319166001600160a01b0392909216919091179055565b60006020828403121561067357600080fd5b81356001600160a01b038116811461068a57600080fd5b9392505050565b6000602082840312156106a357600080fd5b8151801515811461068a57600080fd5b6000602082840312156106c557600080fd5b5051919050565b600082198211156106df576106df6106fb565b500190565b6000828210156106f6576106f66106fb565b500390565b634e487b7160e01b600052601160045260246000fdfea2646970667358221220b4ac3d9a5a2946fb80a95ef1d971cdbf3785595399b169a963643f649395e34264736f6c63430008070033",
  "linkReferences": {},
  "deployedLinkReferences": {}
}