{
  "_format": "hh-sol-artifact-1",
  "contractName": "Token",
  "sourceName": "contracts/Token.sol",
  "abi": [
    {
      "inputs": [
        {
          "internalType": "string",
          "name": "_name",
          "type": "string"
        },
        {
          "internalType": "string",
          "name": "_symbol",
          "type": "string"
        }
      ],
      "stateMutability": "nonpayable",
      "type": "constructor"
    },
    {
      "anonymous": false,
      "inputs": [
        {
          "indexed": true,
          "internalType": "address",
          "name": "owner",
          "type": "address"
        },
        {
          "indexed": true,
          "internalType": "address",
          "name": "spender",
          "type": "address"
        },
        {
          "indexed": false,
          "internalType": "uint256",
          "name": "value",
          "type": "uint256"
        }
      ],
      "name": "Approval",
      "type": "event"
    },
    {
      "anonymous": false,
      "inputs": [
        {
          "indexed": true,
          "internalType": "bytes32",
          "name": "role",
          "type": "bytes32"
        },
        {
          "indexed": true,
          "internalType": "bytes32",
          "name": "previousAdminRole",
          "type": "bytes32"
        },
        {
          "indexed": true,
          "internalType": "bytes32",
          "name": "newAdminRole",
          "type": "bytes32"
        }
      ],
      "name": "RoleAdminChanged",
      "type": "event"
    },
    {
      "anonymous": false,
      "inputs": [
        {
          "indexed": true,
          "internalType": "bytes32",
          "name": "role",
          "type": "bytes32"
        },
        {
          "indexed": true,
          "internalType": "address",
          "name": "account",
          "type": "address"
        },
        {
          "indexed": true,
          "internalType": "address",
          "name": "sender",
          "type": "address"
        }
      ],
      "name": "RoleGranted",
      "type": "event"
    },
    {
      "anonymous": false,
      "inputs": [
        {
          "indexed": true,
          "internalType": "bytes32",
          "name": "role",
          "type": "bytes32"
        },
        {
          "indexed": true,
          "internalType": "address",
          "name": "account",
          "type": "address"
        },
        {
          "indexed": true,
          "internalType": "address",
          "name": "sender",
          "type": "address"
        }
      ],
      "name": "RoleRevoked",
      "type": "event"
    },
    {
      "anonymous": false,
      "inputs": [
        {
          "indexed": true,
          "internalType": "address",
          "name": "from",
          "type": "address"
        },
        {
          "indexed": true,
          "internalType": "address",
          "name": "to",
          "type": "address"
        },
        {
          "indexed": false,
          "internalType": "uint256",
          "name": "value",
          "type": "uint256"
        }
      ],
      "name": "Transfer",
      "type": "event"
    },
    {
      "inputs": [],
      "name": "DEFAULT_ADMIN_ROLE",
      "outputs": [
        {
          "internalType": "bytes32",
          "name": "",
          "type": "bytes32"
        }
      ],
      "stateMutability": "view",
      "type": "function"
    },
    {
      "inputs": [
        {
          "internalType": "address",
          "name": "owner",
          "type": "address"
        },
        {
          "internalType": "address",
          "name": "spender",
          "type": "address"
        }
      ],
      "name": "allowance",
      "outputs": [
        {
          "internalType": "uint256",
          "name": "",
          "type": "uint256"
        }
      ],
      "stateMutability": "view",
      "type": "function"
    },
    {
      "inputs": [
        {
          "internalType": "address",
          "name": "spender",
          "type": "address"
        },
        {
          "internalType": "uint256",
          "name": "amount",
          "type": "uint256"
        }
      ],
      "name": "approve",
      "outputs": [
        {
          "internalType": "bool",
          "name": "",
          "type": "bool"
        }
      ],
      "stateMutability": "nonpayable",
      "type": "function"
    },
    {
      "inputs": [
        {
          "internalType": "address",
          "name": "account",
          "type": "address"
        }
      ],
      "name": "balanceOf",
      "outputs": [
        {
          "internalType": "uint256",
          "name": "",
          "type": "uint256"
        }
      ],
      "stateMutability": "view",
      "type": "function"
    },
    {
      "inputs": [
        {
          "internalType": "address",
          "name": "burner",
          "type": "address"
        },
        {
          "internalType": "uint256",
          "name": "burnAmount",
          "type": "uint256"
        }
      ],
      "name": "burn",
      "outputs": [],
      "stateMutability": "nonpayable",
      "type": "function"
    },
    {
      "inputs": [],
      "name": "decimals",
      "outputs": [
        {
          "internalType": "uint8",
          "name": "",
          "type": "uint8"
        }
      ],
      "stateMutability": "view",
      "type": "function"
    },
    {
      "inputs": [
        {
          "internalType": "address",
          "name": "spender",
          "type": "address"
        },
        {
          "internalType": "uint256",
          "name": "subtractedValue",
          "type": "uint256"
        }
      ],
      "name": "decreaseAllowance",
      "outputs": [
        {
          "internalType": "bool",
          "name": "",
          "type": "bool"
        }
      ],
      "stateMutability": "nonpayable",
      "type": "function"
    },
    {
      "inputs": [
        {
          "internalType": "bytes32",
          "name": "role",
          "type": "bytes32"
        }
      ],
      "name": "getRoleAdmin",
      "outputs": [
        {
          "internalType": "bytes32",
          "name": "",
          "type": "bytes32"
        }
      ],
      "stateMutability": "view",
      "type": "function"
    },
    {
      "inputs": [
        {
          "internalType": "bytes32",
          "name": "role",
          "type": "bytes32"
        },
        {
          "internalType": "address",
          "name": "account",
          "type": "address"
        }
      ],
      "name": "grantRole",
      "outputs": [],
      "stateMutability": "nonpayable",
      "type": "function"
    },
    {
      "inputs": [
        {
          "internalType": "bytes32",
          "name": "role",
          "type": "bytes32"
        },
        {
          "internalType": "address",
          "name": "account",
          "type": "address"
        }
      ],
      "name": "hasRole",
      "outputs": [
        {
          "internalType": "bool",
          "name": "",
          "type": "bool"
        }
      ],
      "stateMutability": "view",
      "type": "function"
    },
    {
      "inputs": [
        {
          "internalType": "address",
          "name": "spender",
          "type": "address"
        },
        {
          "internalType": "uint256",
          "name": "addedValue",
          "type": "uint256"
        }
      ],
      "name": "increaseAllowance",
      "outputs": [
        {
          "internalType": "bool",
          "name": "",
          "type": "bool"
        }
      ],
      "stateMutability": "nonpayable",
      "type": "function"
    },
    {
      "inputs": [
        {
          "internalType": "address",
          "name": "buyer",
          "type": "address"
        },
        {
          "internalType": "uint256",
          "name": "buyerAmount",
          "type": "uint256"
        },
        {
          "internalType": "address",
          "name": "referal",
          "type": "address"
        },
        {
          "internalType": "uint256",
          "name": "referalAmount",
          "type": "uint256"
        }
      ],
      "name": "mint",
      "outputs": [],
      "stateMutability": "nonpayable",
      "type": "function"
    },
    {
      "inputs": [
        {
          "internalType": "address",
          "name": "buyer",
          "type": "address"
        },
        {
          "internalType": "uint256",
          "name": "buyerAmount",
          "type": "uint256"
        }
      ],
      "name": "mint",
      "outputs": [],
      "stateMutability": "nonpayable",
      "type": "function"
    },
    {
      "inputs": [],
      "name": "name",
      "outputs": [
        {
          "internalType": "string",
          "name": "",
          "type": "string"
        }
      ],
      "stateMutability": "view",
      "type": "function"
    },
    {
      "inputs": [
        {
          "internalType": "bytes32",
          "name": "role",
          "type": "bytes32"
        },
        {
          "internalType": "address",
          "name": "account",
          "type": "address"
        }
      ],
      "name": "renounceRole",
      "outputs": [],
      "stateMutability": "nonpayable",
      "type": "function"
    },
    {
      "inputs": [
        {
          "internalType": "bytes32",
          "name": "role",
          "type": "bytes32"
        },
        {
          "internalType": "address",
          "name": "account",
          "type": "address"
        }
      ],
      "name": "revokeRole",
      "outputs": [],
      "stateMutability": "nonpayable",
      "type": "function"
    },
    {
      "inputs": [
        {
          "internalType": "bytes4",
          "name": "interfaceId",
          "type": "bytes4"
        }
      ],
      "name": "supportsInterface",
      "outputs": [
        {
          "internalType": "bool",
          "name": "",
          "type": "bool"
        }
      ],
      "stateMutability": "view",
      "type": "function"
    },
    {
      "inputs": [],
      "name": "symbol",
      "outputs": [
        {
          "internalType": "string",
          "name": "",
          "type": "string"
        }
      ],
      "stateMutability": "view",
      "type": "function"
    },
    {
      "inputs": [],
      "name": "totalSupply",
      "outputs": [
        {
          "internalType": "uint256",
          "name": "",
          "type": "uint256"
        }
      ],
      "stateMutability": "view",
      "type": "function"
    },
    {
      "inputs": [
        {
          "internalType": "address",
          "name": "to",
          "type": "address"
        },
        {
          "internalType": "uint256",
          "name": "amount",
          "type": "uint256"
        }
      ],
      "name": "transfer",
      "outputs": [
        {
          "internalType": "bool",
          "name": "",
          "type": "bool"
        }
      ],
      "stateMutability": "nonpayable",
      "type": "function"
    },
    {
      "inputs": [
        {
          "internalType": "address",
          "name": "from",
          "type": "address"
        },
        {
          "internalType": "address",
          "name": "to",
          "type": "address"
        },
        {
          "internalType": "uint256",
          "name": "amount",
          "type": "uint256"
        }
      ],
      "name": "transferFrom",
      "outputs": [
        {
          "internalType": "bool",
          "name": "",
          "type": "bool"
        }
      ],
      "stateMutability": "nonpayable",
      "type": "function"
    }
  ],
  "bytecode": "0x60806040523480156200001157600080fd5b506040516200160a3803806200160a8339810160408190526200003491620002ba565b8151829082906200004d9060039060208501906200015d565b508051620000639060049060208401906200015d565b506200007591506000905033620000a9565b620000a17f3c11d16cbaffd01df69ce1c404f6340ee057498f5f00246190ea54220576a84833620000a9565b505062000377565b620000b58282620000b9565b5050565b60008281526005602090815260408083206001600160a01b038516845290915290205460ff16620000b55760008281526005602090815260408083206001600160a01b03851684529091529020805460ff19166001179055620001193390565b6001600160a01b0316816001600160a01b0316837f2f8788117e7eff1d82e926ec794901d17c78024a50270940304540a733656f0d60405160405180910390a45050565b8280546200016b9062000324565b90600052602060002090601f0160209004810192826200018f5760008555620001da565b82601f10620001aa57805160ff1916838001178555620001da565b82800160010185558215620001da579182015b82811115620001da578251825591602001919060010190620001bd565b50620001e8929150620001ec565b5090565b5b80821115620001e85760008155600101620001ed565b600082601f8301126200021557600080fd5b81516001600160401b038082111562000232576200023262000361565b604051601f8301601f19908116603f011681019082821181831017156200025d576200025d62000361565b816040528381526020925086838588010111156200027a57600080fd5b600091505b838210156200029e57858201830151818301840152908201906200027f565b83821115620002b05760008385830101525b9695505050505050565b60008060408385031215620002ce57600080fd5b82516001600160401b0380821115620002e657600080fd5b620002f48683870162000203565b935060208501519150808211156200030b57600080fd5b506200031a8582860162000203565b9150509250929050565b600181811c908216806200033957607f821691505b602082108114156200035b57634e487b7160e01b600052602260045260246000fd5b50919050565b634e487b7160e01b600052604160045260246000fd5b61128380620003876000396000f3fe608060405234801561001057600080fd5b50600436106101375760003560e01c80633c173a4f116100b85780639dc29fac1161007c5780639dc29fac14610288578063a217fddf1461029b578063a457c2d7146102a3578063a9059cbb146102b6578063d547741f146102c9578063dd62ed3e146102dc57600080fd5b80633c173a4f1461021e57806340c10f191461023157806370a082311461024457806391d148541461026d57806395d89b411461028057600080fd5b8063248a9ca3116100ff578063248a9ca3146101b15780632f2ff15d146101d4578063313ce567146101e957806336568abe146101f8578063395093511461020b57600080fd5b806301ffc9a71461013c57806306fdde0314610164578063095ea7b31461017957806318160ddd1461018c57806323b872dd1461019e575b600080fd5b61014f61014a36600461106d565b6102ef565b60405190151581526020015b60405180910390f35b61016c610326565b60405161015b919061110c565b61014f610187366004610fc3565b6103b8565b6002545b60405190815260200161015b565b61014f6101ac366004610f87565b6103d0565b6101906101bf366004611031565b60009081526005602052604090206001015490565b6101e76101e236600461104a565b6103f4565b005b6040516012815260200161015b565b6101e761020636600461104a565b61041e565b61014f610219366004610fc3565b6104a1565b6101e761022c366004610fed565b6104c3565b6101e761023f366004610fc3565b610508565b610190610252366004610f39565b6001600160a01b031660009081526020819052604090205490565b61014f61027b36600461104a565b61053c565b61016c610567565b6101e7610296366004610fc3565b610576565b610190600081565b61014f6102b1366004610fc3565b6105aa565b61014f6102c4366004610fc3565b610625565b6101e76102d736600461104a565b610633565b6101906102ea366004610f54565b610658565b60006001600160e01b03198216637965db0b60e01b148061032057506301ffc9a760e01b6001600160e01b03198316145b92915050565b606060038054610335906111d0565b80601f0160208091040260200160405190810160405280929190818152602001828054610361906111d0565b80156103ae5780601f10610383576101008083540402835291602001916103ae565b820191906000526020600020905b81548152906001019060200180831161039157829003601f168201915b5050505050905090565b6000336103c6818585610683565b5060019392505050565b6000336103de8582856107a7565b6103e9858585610821565b506001949350505050565b60008281526005602052604090206001015461040f816109ef565b61041983836109fc565b505050565b6001600160a01b03811633146104935760405162461bcd60e51b815260206004820152602f60248201527f416363657373436f6e74726f6c3a2063616e206f6e6c792072656e6f756e636560448201526e103937b632b9903337b91039b2b63360891b60648201526084015b60405180910390fd5b61049d8282610a82565b5050565b6000336103c68185856104b48383610658565b6104be919061113f565b610683565b7f9f2df0fed2c77648de5860a4cc508cd0818c85b8b8a1ab4ceeef8d981c8956a66104ed816109ef565b6104f78585610ae9565b6105018383610ae9565b5050505050565b7f9f2df0fed2c77648de5860a4cc508cd0818c85b8b8a1ab4ceeef8d981c8956a6610532816109ef565b6104198383610ae9565b60009182526005602090815260408084206001600160a01b0393909316845291905290205460ff1690565b606060048054610335906111d0565b7f3c11d16cbaffd01df69ce1c404f6340ee057498f5f00246190ea54220576a8486105a0816109ef565b6104198383610bc8565b600033816105b88286610658565b9050838110156106185760405162461bcd60e51b815260206004820152602560248201527f45524332303a2064656372656173656420616c6c6f77616e63652062656c6f77604482015264207a65726f60d81b606482015260840161048a565b6103e98286868403610683565b6000336103c6818585610821565b60008281526005602052604090206001015461064e816109ef565b6104198383610a82565b6001600160a01b03918216600090815260016020908152604080832093909416825291909152205490565b6001600160a01b0383166106e55760405162461bcd60e51b8152602060048201526024808201527f45524332303a20617070726f76652066726f6d20746865207a65726f206164646044820152637265737360e01b606482015260840161048a565b6001600160a01b0382166107465760405162461bcd60e51b815260206004820152602260248201527f45524332303a20617070726f766520746f20746865207a65726f206164647265604482015261737360f01b606482015260840161048a565b6001600160a01b0383811660008181526001602090815260408083209487168084529482529182902085905590518481527f8c5be1e5ebec7d5bd14f71427d1e84f3dd0314c0f7b2291e5b200ac8c7c3b925910160405180910390a3505050565b60006107b38484610658565b9050600019811461081b578181101561080e5760405162461bcd60e51b815260206004820152601d60248201527f45524332303a20696e73756666696369656e7420616c6c6f77616e6365000000604482015260640161048a565b61081b8484848403610683565b50505050565b6001600160a01b0383166108855760405162461bcd60e51b815260206004820152602560248201527f45524332303a207472616e736665722066726f6d20746865207a65726f206164604482015264647265737360d81b606482015260840161048a565b6001600160a01b0382166108e75760405162461bcd60e51b815260206004820152602360248201527f45524332303a207472616e7366657220746f20746865207a65726f206164647260448201526265737360e81b606482015260840161048a565b6001600160a01b0383166000908152602081905260409020548181101561095f5760405162461bcd60e51b815260206004820152602660248201527f45524332303a207472616e7366657220616d6f756e7420657863656564732062604482015265616c616e636560d01b606482015260840161048a565b6001600160a01b0380851660009081526020819052604080822085850390559185168152908120805484929061099690849061113f565b92505081905550826001600160a01b0316846001600160a01b03167fddf252ad1be2c89b69c2b068fc378daa952ba7f163c4a11628f55a4df523b3ef846040516109e291815260200190565b60405180910390a361081b565b6109f98133610d16565b50565b610a06828261053c565b61049d5760008281526005602090815260408083206001600160a01b03851684529091529020805460ff19166001179055610a3e3390565b6001600160a01b0316816001600160a01b0316837f2f8788117e7eff1d82e926ec794901d17c78024a50270940304540a733656f0d60405160405180910390a45050565b610a8c828261053c565b1561049d5760008281526005602090815260408083206001600160a01b0385168085529252808320805460ff1916905551339285917ff6391f5c32d9c69d2a47ea670b442974b53935d1edc7fd64eb21e047a839171b9190a45050565b6001600160a01b038216610b3f5760405162461bcd60e51b815260206004820152601f60248201527f45524332303a206d696e7420746f20746865207a65726f206164647265737300604482015260640161048a565b8060026000828254610b51919061113f565b90915550506001600160a01b03821660009081526020819052604081208054839290610b7e90849061113f565b90915550506040518181526001600160a01b038316906000907fddf252ad1be2c89b69c2b068fc378daa952ba7f163c4a11628f55a4df523b3ef9060200160405180910390a35050565b6001600160a01b038216610c285760405162461bcd60e51b815260206004820152602160248201527f45524332303a206275726e2066726f6d20746865207a65726f206164647265736044820152607360f81b606482015260840161048a565b6001600160a01b03821660009081526020819052604090205481811015610c9c5760405162461bcd60e51b815260206004820152602260248201527f45524332303a206275726e20616d6f756e7420657863656564732062616c616e604482015261636560f01b606482015260840161048a565b6001600160a01b0383166000908152602081905260408120838303905560028054849290610ccb908490611176565b90915550506040518281526000906001600160a01b038516907fddf252ad1be2c89b69c2b068fc378daa952ba7f163c4a11628f55a4df523b3ef9060200160405180910390a3505050565b610d20828261053c565b61049d57610d38816001600160a01b03166014610d7a565b610d43836020610d7a565b604051602001610d54929190611097565b60408051601f198184030181529082905262461bcd60e51b825261048a9160040161110c565b60606000610d89836002611157565b610d9490600261113f565b67ffffffffffffffff811115610dac57610dac611237565b6040519080825280601f01601f191660200182016040528015610dd6576020820181803683370190505b509050600360fc1b81600081518110610df157610df1611221565b60200101906001600160f81b031916908160001a905350600f60fb1b81600181518110610e2057610e20611221565b60200101906001600160f81b031916908160001a9053506000610e44846002611157565b610e4f90600161113f565b90505b6001811115610ec7576f181899199a1a9b1b9c1cb0b131b232b360811b85600f1660108110610e8357610e83611221565b1a60f81b828281518110610e9957610e99611221565b60200101906001600160f81b031916908160001a90535060049490941c93610ec0816111b9565b9050610e52565b508315610f165760405162461bcd60e51b815260206004820181905260248201527f537472696e67733a20686578206c656e67746820696e73756666696369656e74604482015260640161048a565b9392505050565b80356001600160a01b0381168114610f3457600080fd5b919050565b600060208284031215610f4b57600080fd5b610f1682610f1d565b60008060408385031215610f6757600080fd5b610f7083610f1d565b9150610f7e60208401610f1d565b90509250929050565b600080600060608486031215610f9c57600080fd5b610fa584610f1d565b9250610fb360208501610f1d565b9150604084013590509250925092565b60008060408385031215610fd657600080fd5b610fdf83610f1d565b946020939093013593505050565b6000806000806080858703121561100357600080fd5b61100c85610f1d565b93506020850135925061102160408601610f1d565b9396929550929360600135925050565b60006020828403121561104357600080fd5b5035919050565b6000806040838503121561105d57600080fd5b82359150610f7e60208401610f1d565b60006020828403121561107f57600080fd5b81356001600160e01b031981168114610f1657600080fd5b7f416363657373436f6e74726f6c3a206163636f756e74200000000000000000008152600083516110cf81601785016020880161118d565b7001034b99036b4b9b9b4b733903937b6329607d1b601791840191820152835161110081602884016020880161118d565b01602801949350505050565b602081526000825180602084015261112b81604085016020870161118d565b601f01601f19169190910160400192915050565b600082198211156111525761115261120b565b500190565b60008160001904831182151516156111715761117161120b565b500290565b6000828210156111885761118861120b565b500390565b60005b838110156111a8578181015183820152602001611190565b8381111561081b5750506000910152565b6000816111c8576111c861120b565b506000190190565b600181811c908216806111e457607f821691505b6020821081141561120557634e487b7160e01b600052602260045260246000fd5b50919050565b634e487b7160e01b600052601160045260246000fd5b634e487b7160e01b600052603260045260246000fd5b634e487b7160e01b600052604160045260246000fdfea264697066735822122082c684232e5d727e938f80d27e9d46fb5ec5eb1802d8cc58ec1df6d71dd6d2d764736f6c63430008070033",
  "linkReferences": {},
  "deployedLinkReferences": {}
}