{
    "_format": "hh-sol-artifact-1",
    "contractName": "Token",
    "sourceName": "contracts/Token.sol",
    "abi": [
        {
            "inputs": [
                {
                    "internalType": "string",
                    "name": "_name",
                    "type": "string"
                },
                {
                    "internalType": "string",
                    "name": "_symbol",
                    "type": "string"
                }
            ],
            "stateMutability": "nonpayable",
            "type": "constructor"
        },
        {
            "anonymous": false,
            "inputs": [
                {
                    "indexed": true,
                    "internalType": "address",
                    "name": "owner",
                    "type": "address"
                },
                {
                    "indexed": true,
                    "internalType": "address",
                    "name": "spender",
                    "type": "address"
                },
                {
                    "indexed": false,
                    "internalType": "uint256",
                    "name": "value",
                    "type": "uint256"
                }
            ],
            "name": "Approval",
            "type": "event"
        },
        {
            "anonymous": false,
            "inputs": [
                {
                    "indexed": true,
                    "internalType": "address",
                    "name": "minter",
                    "type": "address"
                }
            ],
            "name": "MinterInitialized",
            "type": "event"
        },
        {
            "anonymous": false,
            "inputs": [
                {
                    "indexed": true,
                    "internalType": "bytes32",
                    "name": "role",
                    "type": "bytes32"
                },
                {
                    "indexed": true,
                    "internalType": "bytes32",
                    "name": "previousAdminRole",
                    "type": "bytes32"
                },
                {
                    "indexed": true,
                    "internalType": "bytes32",
                    "name": "newAdminRole",
                    "type": "bytes32"
                }
            ],
            "name": "RoleAdminChanged",
            "type": "event"
        },
        {
            "anonymous": false,
            "inputs": [
                {
                    "indexed": true,
                    "internalType": "bytes32",
                    "name": "role",
                    "type": "bytes32"
                },
                {
                    "indexed": true,
                    "internalType": "address",
                    "name": "account",
                    "type": "address"
                },
                {
                    "indexed": true,
                    "internalType": "address",
                    "name": "sender",
                    "type": "address"
                }
            ],
            "name": "RoleGranted",
            "type": "event"
        },
        {
            "anonymous": false,
            "inputs": [
                {
                    "indexed": true,
                    "internalType": "bytes32",
                    "name": "role",
                    "type": "bytes32"
                },
                {
                    "indexed": true,
                    "internalType": "address",
                    "name": "account",
                    "type": "address"
                },
                {
                    "indexed": true,
                    "internalType": "address",
                    "name": "sender",
                    "type": "address"
                }
            ],
            "name": "RoleRevoked",
            "type": "event"
        },
        {
            "anonymous": false,
            "inputs": [
                {
                    "indexed": true,
                    "internalType": "address",
                    "name": "from",
                    "type": "address"
                },
                {
                    "indexed": true,
                    "internalType": "address",
                    "name": "to",
                    "type": "address"
                },
                {
                    "indexed": false,
                    "internalType": "uint256",
                    "name": "value",
                    "type": "uint256"
                }
            ],
            "name": "Transfer",
            "type": "event"
        },
        {
            "inputs": [],
            "name": "DEFAULT_ADMIN_ROLE",
            "outputs": [
                {
                    "internalType": "bytes32",
                    "name": "",
                    "type": "bytes32"
                }
            ],
            "stateMutability": "view",
            "type": "function"
        },
        {
            "inputs": [
                {
                    "internalType": "address",
                    "name": "owner",
                    "type": "address"
                },
                {
                    "internalType": "address",
                    "name": "spender",
                    "type": "address"
                }
            ],
            "name": "allowance",
            "outputs": [
                {
                    "internalType": "uint256",
                    "name": "",
                    "type": "uint256"
                }
            ],
            "stateMutability": "view",
            "type": "function"
        },
        {
            "inputs": [
                {
                    "internalType": "address",
                    "name": "spender",
                    "type": "address"
                },
                {
                    "internalType": "uint256",
                    "name": "amount",
                    "type": "uint256"
                }
            ],
            "name": "approve",
            "outputs": [
                {
                    "internalType": "bool",
                    "name": "",
                    "type": "bool"
                }
            ],
            "stateMutability": "nonpayable",
            "type": "function"
        },
        {
            "inputs": [
                {
                    "internalType": "address",
                    "name": "account",
                    "type": "address"
                }
            ],
            "name": "balanceOf",
            "outputs": [
                {
                    "internalType": "uint256",
                    "name": "",
                    "type": "uint256"
                }
            ],
            "stateMutability": "view",
            "type": "function"
        },
        {
            "inputs": [],
            "name": "decimals",
            "outputs": [
                {
                    "internalType": "uint8",
                    "name": "",
                    "type": "uint8"
                }
            ],
            "stateMutability": "view",
            "type": "function"
        },
        {
            "inputs": [
                {
                    "internalType": "address",
                    "name": "spender",
                    "type": "address"
                },
                {
                    "internalType": "uint256",
                    "name": "subtractedValue",
                    "type": "uint256"
                }
            ],
            "name": "decreaseAllowance",
            "outputs": [
                {
                    "internalType": "bool",
                    "name": "",
                    "type": "bool"
                }
            ],
            "stateMutability": "nonpayable",
            "type": "function"
        },
        {
            "inputs": [
                {
                    "internalType": "bytes32",
                    "name": "role",
                    "type": "bytes32"
                }
            ],
            "name": "getRoleAdmin",
            "outputs": [
                {
                    "internalType": "bytes32",
                    "name": "",
                    "type": "bytes32"
                }
            ],
            "stateMutability": "view",
            "type": "function"
        },
        {
            "inputs": [
                {
                    "internalType": "bytes32",
                    "name": "role",
                    "type": "bytes32"
                },
                {
                    "internalType": "address",
                    "name": "account",
                    "type": "address"
                }
            ],
            "name": "grantRole",
            "outputs": [],
            "stateMutability": "nonpayable",
            "type": "function"
        },
        {
            "inputs": [
                {
                    "internalType": "bytes32",
                    "name": "role",
                    "type": "bytes32"
                },
                {
                    "internalType": "address",
                    "name": "account",
                    "type": "address"
                }
            ],
            "name": "hasRole",
            "outputs": [
                {
                    "internalType": "bool",
                    "name": "",
                    "type": "bool"
                }
            ],
            "stateMutability": "view",
            "type": "function"
        },
        {
            "inputs": [
                {
                    "internalType": "address",
                    "name": "spender",
                    "type": "address"
                },
                {
                    "internalType": "uint256",
                    "name": "addedValue",
                    "type": "uint256"
                }
            ],
            "name": "increaseAllowance",
            "outputs": [
                {
                    "internalType": "bool",
                    "name": "",
                    "type": "bool"
                }
            ],
            "stateMutability": "nonpayable",
            "type": "function"
        },
        {
            "inputs": [
                {
                    "internalType": "address",
                    "name": "buyer",
                    "type": "address"
                },
                {
                    "internalType": "uint256",
                    "name": "buyerAmount",
                    "type": "uint256"
                },
                {
                    "internalType": "address",
                    "name": "referal",
                    "type": "address"
                },
                {
                    "internalType": "uint256",
                    "name": "referalAmount",
                    "type": "uint256"
                }
            ],
            "name": "mint",
            "outputs": [],
            "stateMutability": "nonpayable",
            "type": "function"
        },
        {
            "inputs": [],
            "name": "name",
            "outputs": [
                {
                    "internalType": "string",
                    "name": "",
                    "type": "string"
                }
            ],
            "stateMutability": "view",
            "type": "function"
        },
        {
            "inputs": [
                {
                    "internalType": "bytes32",
                    "name": "role",
                    "type": "bytes32"
                },
                {
                    "internalType": "address",
                    "name": "account",
                    "type": "address"
                }
            ],
            "name": "renounceRole",
            "outputs": [],
            "stateMutability": "nonpayable",
            "type": "function"
        },
        {
            "inputs": [
                {
                    "internalType": "bytes32",
                    "name": "role",
                    "type": "bytes32"
                },
                {
                    "internalType": "address",
                    "name": "account",
                    "type": "address"
                }
            ],
            "name": "revokeRole",
            "outputs": [],
            "stateMutability": "nonpayable",
            "type": "function"
        },
        {
            "inputs": [
                {
                    "internalType": "bytes4",
                    "name": "interfaceId",
                    "type": "bytes4"
                }
            ],
            "name": "supportsInterface",
            "outputs": [
                {
                    "internalType": "bool",
                    "name": "",
                    "type": "bool"
                }
            ],
            "stateMutability": "view",
            "type": "function"
        },
        {
            "inputs": [],
            "name": "symbol",
            "outputs": [
                {
                    "internalType": "string",
                    "name": "",
                    "type": "string"
                }
            ],
            "stateMutability": "view",
            "type": "function"
        },
        {
            "inputs": [],
            "name": "totalSupply",
            "outputs": [
                {
                    "internalType": "uint256",
                    "name": "",
                    "type": "uint256"
                }
            ],
            "stateMutability": "view",
            "type": "function"
        },
        {
            "inputs": [
                {
                    "internalType": "address",
                    "name": "to",
                    "type": "address"
                },
                {
                    "internalType": "uint256",
                    "name": "amount",
                    "type": "uint256"
                }
            ],
            "name": "transfer",
            "outputs": [
                {
                    "internalType": "bool",
                    "name": "",
                    "type": "bool"
                }
            ],
            "stateMutability": "nonpayable",
            "type": "function"
        },
        {
            "inputs": [
                {
                    "internalType": "address",
                    "name": "from",
                    "type": "address"
                },
                {
                    "internalType": "address",
                    "name": "to",
                    "type": "address"
                },
                {
                    "internalType": "uint256",
                    "name": "amount",
                    "type": "uint256"
                }
            ],
            "name": "transferFrom",
            "outputs": [
                {
                    "internalType": "bool",
                    "name": "",
                    "type": "bool"
                }
            ],
            "stateMutability": "nonpayable",
            "type": "function"
        }
    ],
    "bytecode": "0x60806040523480156200001157600080fd5b50604051620013d5380380620013d583398101604081905262000034916200028e565b8151829082906200004d90600390602085019062000131565b5080516200006390600490602084019062000131565b5062000075915060009050336200007d565b50506200034b565b6200008982826200008d565b5050565b60008281526005602090815260408083206001600160a01b038516845290915290205460ff16620000895760008281526005602090815260408083206001600160a01b03851684529091529020805460ff19166001179055620000ed3390565b6001600160a01b0316816001600160a01b0316837f2f8788117e7eff1d82e926ec794901d17c78024a50270940304540a733656f0d60405160405180910390a45050565b8280546200013f90620002f8565b90600052602060002090601f016020900481019282620001635760008555620001ae565b82601f106200017e57805160ff1916838001178555620001ae565b82800160010185558215620001ae579182015b82811115620001ae57825182559160200191906001019062000191565b50620001bc929150620001c0565b5090565b5b80821115620001bc5760008155600101620001c1565b600082601f830112620001e957600080fd5b81516001600160401b038082111562000206576200020662000335565b604051601f8301601f19908116603f0116810190828211818310171562000231576200023162000335565b816040528381526020925086838588010111156200024e57600080fd5b600091505b8382101562000272578582018301518183018401529082019062000253565b83821115620002845760008385830101525b9695505050505050565b60008060408385031215620002a257600080fd5b82516001600160401b0380821115620002ba57600080fd5b620002c886838701620001d7565b93506020850151915080821115620002df57600080fd5b50620002ee85828601620001d7565b9150509250929050565b600181811c908216806200030d57607f821691505b602082108114156200032f57634e487b7160e01b600052602260045260246000fd5b50919050565b634e487b7160e01b600052604160045260246000fd5b61107a806200035b6000396000f3fe608060405234801561001057600080fd5b50600436106101215760003560e01c806339509351116100ad578063a217fddf11610071578063a217fddf1461025f578063a457c2d714610267578063a9059cbb1461027a578063d547741f1461028d578063dd62ed3e146102a057600080fd5b806339509351146101f55780633c173a4f1461020857806370a082311461021b57806391d148541461024457806395d89b411461025757600080fd5b806323b872dd116100f457806323b872dd14610188578063248a9ca31461019b5780632f2ff15d146101be578063313ce567146101d357806336568abe146101e257600080fd5b806301ffc9a71461012657806306fdde031461014e578063095ea7b31461016357806318160ddd14610176575b600080fd5b610139610134366004610e7b565b6102b3565b60405190151581526020015b60405180910390f35b6101566102ea565b6040516101459190610f1a565b610139610171366004610dd1565b61037c565b6002545b604051908152602001610145565b610139610196366004610d95565b610394565b61017a6101a9366004610e3f565b60009081526005602052604090206001015490565b6101d16101cc366004610e58565b6103b8565b005b60405160128152602001610145565b6101d16101f0366004610e58565b6103e2565b610139610203366004610dd1565b610465565b6101d1610216366004610dfb565b610487565b61017a610229366004610d47565b6001600160a01b031660009081526020819052604090205490565b610139610252366004610e58565b6104cc565b6101566104f7565b61017a600081565b610139610275366004610dd1565b610506565b610139610288366004610dd1565b610581565b6101d161029b366004610e58565b61058f565b61017a6102ae366004610d62565b6105b4565b60006001600160e01b03198216637965db0b60e01b14806102e457506301ffc9a760e01b6001600160e01b03198316145b92915050565b6060600380546102f990610fc7565b80601f016020809104026020016040519081016040528092919081815260200182805461032590610fc7565b80156103725780601f1061034757610100808354040283529160200191610372565b820191906000526020600020905b81548152906001019060200180831161035557829003601f168201915b5050505050905090565b60003361038a8185856105df565b5060019392505050565b6000336103a2858285610703565b6103ad85858561077d565b506001949350505050565b6000828152600560205260409020600101546103d38161094b565b6103dd8383610958565b505050565b6001600160a01b03811633146104575760405162461bcd60e51b815260206004820152602f60248201527f416363657373436f6e74726f6c3a2063616e206f6e6c792072656e6f756e636560448201526e103937b632b9903337b91039b2b63360891b60648201526084015b60405180910390fd5b61046182826109de565b5050565b60003361038a81858561047883836105b4565b6104829190610f4d565b6105df565b7f9f2df0fed2c77648de5860a4cc508cd0818c85b8b8a1ab4ceeef8d981c8956a66104b18161094b565b6104bb8585610a45565b6104c58383610a45565b5050505050565b60009182526005602090815260408084206001600160a01b0393909316845291905290205460ff1690565b6060600480546102f990610fc7565b6000338161051482866105b4565b9050838110156105745760405162461bcd60e51b815260206004820152602560248201527f45524332303a2064656372656173656420616c6c6f77616e63652062656c6f77604482015264207a65726f60d81b606482015260840161044e565b6103ad82868684036105df565b60003361038a81858561077d565b6000828152600560205260409020600101546105aa8161094b565b6103dd83836109de565b6001600160a01b03918216600090815260016020908152604080832093909416825291909152205490565b6001600160a01b0383166106415760405162461bcd60e51b8152602060048201526024808201527f45524332303a20617070726f76652066726f6d20746865207a65726f206164646044820152637265737360e01b606482015260840161044e565b6001600160a01b0382166106a25760405162461bcd60e51b815260206004820152602260248201527f45524332303a20617070726f766520746f20746865207a65726f206164647265604482015261737360f01b606482015260840161044e565b6001600160a01b0383811660008181526001602090815260408083209487168084529482529182902085905590518481527f8c5be1e5ebec7d5bd14f71427d1e84f3dd0314c0f7b2291e5b200ac8c7c3b925910160405180910390a3505050565b600061070f84846105b4565b90506000198114610777578181101561076a5760405162461bcd60e51b815260206004820152601d60248201527f45524332303a20696e73756666696369656e7420616c6c6f77616e6365000000604482015260640161044e565b61077784848484036105df565b50505050565b6001600160a01b0383166107e15760405162461bcd60e51b815260206004820152602560248201527f45524332303a207472616e736665722066726f6d20746865207a65726f206164604482015264647265737360d81b606482015260840161044e565b6001600160a01b0382166108435760405162461bcd60e51b815260206004820152602360248201527f45524332303a207472616e7366657220746f20746865207a65726f206164647260448201526265737360e81b606482015260840161044e565b6001600160a01b038316600090815260208190526040902054818110156108bb5760405162461bcd60e51b815260206004820152602660248201527f45524332303a207472616e7366657220616d6f756e7420657863656564732062604482015265616c616e636560d01b606482015260840161044e565b6001600160a01b038085166000908152602081905260408082208585039055918516815290812080548492906108f2908490610f4d565b92505081905550826001600160a01b0316846001600160a01b03167fddf252ad1be2c89b69c2b068fc378daa952ba7f163c4a11628f55a4df523b3ef8460405161093e91815260200190565b60405180910390a3610777565b6109558133610b24565b50565b61096282826104cc565b6104615760008281526005602090815260408083206001600160a01b03851684529091529020805460ff1916600117905561099a3390565b6001600160a01b0316816001600160a01b0316837f2f8788117e7eff1d82e926ec794901d17c78024a50270940304540a733656f0d60405160405180910390a45050565b6109e882826104cc565b156104615760008281526005602090815260408083206001600160a01b0385168085529252808320805460ff1916905551339285917ff6391f5c32d9c69d2a47ea670b442974b53935d1edc7fd64eb21e047a839171b9190a45050565b6001600160a01b038216610a9b5760405162461bcd60e51b815260206004820152601f60248201527f45524332303a206d696e7420746f20746865207a65726f206164647265737300604482015260640161044e565b8060026000828254610aad9190610f4d565b90915550506001600160a01b03821660009081526020819052604081208054839290610ada908490610f4d565b90915550506040518181526001600160a01b038316906000907fddf252ad1be2c89b69c2b068fc378daa952ba7f163c4a11628f55a4df523b3ef9060200160405180910390a35050565b610b2e82826104cc565b61046157610b46816001600160a01b03166014610b88565b610b51836020610b88565b604051602001610b62929190610ea5565b60408051601f198184030181529082905262461bcd60e51b825261044e91600401610f1a565b60606000610b97836002610f65565b610ba2906002610f4d565b67ffffffffffffffff811115610bba57610bba61102e565b6040519080825280601f01601f191660200182016040528015610be4576020820181803683370190505b509050600360fc1b81600081518110610bff57610bff611018565b60200101906001600160f81b031916908160001a905350600f60fb1b81600181518110610c2e57610c2e611018565b60200101906001600160f81b031916908160001a9053506000610c52846002610f65565b610c5d906001610f4d565b90505b6001811115610cd5576f181899199a1a9b1b9c1cb0b131b232b360811b85600f1660108110610c9157610c91611018565b1a60f81b828281518110610ca757610ca7611018565b60200101906001600160f81b031916908160001a90535060049490941c93610cce81610fb0565b9050610c60565b508315610d245760405162461bcd60e51b815260206004820181905260248201527f537472696e67733a20686578206c656e67746820696e73756666696369656e74604482015260640161044e565b9392505050565b80356001600160a01b0381168114610d4257600080fd5b919050565b600060208284031215610d5957600080fd5b610d2482610d2b565b60008060408385031215610d7557600080fd5b610d7e83610d2b565b9150610d8c60208401610d2b565b90509250929050565b600080600060608486031215610daa57600080fd5b610db384610d2b565b9250610dc160208501610d2b565b9150604084013590509250925092565b60008060408385031215610de457600080fd5b610ded83610d2b565b946020939093013593505050565b60008060008060808587031215610e1157600080fd5b610e1a85610d2b565b935060208501359250610e2f60408601610d2b565b9396929550929360600135925050565b600060208284031215610e5157600080fd5b5035919050565b60008060408385031215610e6b57600080fd5b82359150610d8c60208401610d2b565b600060208284031215610e8d57600080fd5b81356001600160e01b031981168114610d2457600080fd5b7f416363657373436f6e74726f6c3a206163636f756e7420000000000000000000815260008351610edd816017850160208801610f84565b7001034b99036b4b9b9b4b733903937b6329607d1b6017918401918201528351610f0e816028840160208801610f84565b01602801949350505050565b6020815260008251806020840152610f39816040850160208701610f84565b601f01601f19169190910160400192915050565b60008219821115610f6057610f60611002565b500190565b6000816000190483118215151615610f7f57610f7f611002565b500290565b60005b83811015610f9f578181015183820152602001610f87565b838111156107775750506000910152565b600081610fbf57610fbf611002565b506000190190565b600181811c90821680610fdb57607f821691505b60208210811415610ffc57634e487b7160e01b600052602260045260246000fd5b50919050565b634e487b7160e01b600052601160045260246000fd5b634e487b7160e01b600052603260045260246000fd5b634e487b7160e01b600052604160045260246000fdfea2646970667358221220f26ffadb00c7deeb60193c5957b02689a8cabad71e5c444ab990c4ecff825ed264736f6c63430008070033",
    "linkReferences": {},
    "deployedLinkReferences": {}
}