{
  "_format": "hh-sol-artifact-1",
  "contractName": "TSM",
  "sourceName": "contracts/TSM.sol",
  "abi": [
    {
      "inputs": [
        {
          "internalType": "address",
          "name": "_token",
          "type": "address"
        }
      ],
      "stateMutability": "nonpayable",
      "type": "constructor"
    },
    {
      "anonymous": false,
      "inputs": [
        {
          "indexed": true,
          "internalType": "bytes32",
          "name": "role",
          "type": "bytes32"
        },
        {
          "indexed": true,
          "internalType": "bytes32",
          "name": "previousAdminRole",
          "type": "bytes32"
        },
        {
          "indexed": true,
          "internalType": "bytes32",
          "name": "newAdminRole",
          "type": "bytes32"
        }
      ],
      "name": "RoleAdminChanged",
      "type": "event"
    },
    {
      "anonymous": false,
      "inputs": [
        {
          "indexed": true,
          "internalType": "bytes32",
          "name": "role",
          "type": "bytes32"
        },
        {
          "indexed": true,
          "internalType": "address",
          "name": "account",
          "type": "address"
        },
        {
          "indexed": true,
          "internalType": "address",
          "name": "sender",
          "type": "address"
        }
      ],
      "name": "RoleGranted",
      "type": "event"
    },
    {
      "anonymous": false,
      "inputs": [
        {
          "indexed": true,
          "internalType": "bytes32",
          "name": "role",
          "type": "bytes32"
        },
        {
          "indexed": true,
          "internalType": "address",
          "name": "account",
          "type": "address"
        },
        {
          "indexed": true,
          "internalType": "address",
          "name": "sender",
          "type": "address"
        }
      ],
      "name": "RoleRevoked",
      "type": "event"
    },
    {
      "inputs": [],
      "name": "DEFAULT_ADMIN_ROLE",
      "outputs": [
        {
          "internalType": "bytes32",
          "name": "",
          "type": "bytes32"
        }
      ],
      "stateMutability": "view",
      "type": "function"
    },
    {
      "inputs": [],
      "name": "ETH_USD",
      "outputs": [
        {
          "internalType": "uint256",
          "name": "",
          "type": "uint256"
        }
      ],
      "stateMutability": "view",
      "type": "function"
    },
    {
      "inputs": [
        {
          "internalType": "address",
          "name": "faucet",
          "type": "address"
        }
      ],
      "name": "SetFaucet",
      "outputs": [],
      "stateMutability": "nonpayable",
      "type": "function"
    },
    {
      "inputs": [
        {
          "internalType": "address[]",
          "name": "tokens",
          "type": "address[]"
        }
      ],
      "name": "addStableCoins",
      "outputs": [],
      "stateMutability": "nonpayable",
      "type": "function"
    },
    {
      "inputs": [
        {
          "internalType": "address",
          "name": "user",
          "type": "address"
        }
      ],
      "name": "addUser",
      "outputs": [],
      "stateMutability": "nonpayable",
      "type": "function"
    },
    {
      "inputs": [
        {
          "internalType": "address[]",
          "name": "users",
          "type": "address[]"
        }
      ],
      "name": "addUsers",
      "outputs": [],
      "stateMutability": "nonpayable",
      "type": "function"
    },
    {
      "inputs": [
        {
          "internalType": "uint256",
          "name": "_amountUSD",
          "type": "uint256"
        }
      ],
      "name": "amountToSend",
      "outputs": [
        {
          "internalType": "uint256",
          "name": "",
          "type": "uint256"
        }
      ],
      "stateMutability": "view",
      "type": "function"
    },
    {
      "inputs": [
        {
          "internalType": "address",
          "name": "",
          "type": "address"
        }
      ],
      "name": "avaiableStableCoin",
      "outputs": [
        {
          "internalType": "bool",
          "name": "",
          "type": "bool"
        }
      ],
      "stateMutability": "view",
      "type": "function"
    },
    {
      "inputs": [
        {
          "internalType": "address",
          "name": "ref",
          "type": "address"
        }
      ],
      "name": "ethBuyWithRef",
      "outputs": [],
      "stateMutability": "payable",
      "type": "function"
    },
    {
      "inputs": [],
      "name": "ethBuyWithoutRef",
      "outputs": [],
      "stateMutability": "payable",
      "type": "function"
    },
    {
      "inputs": [
        {
          "internalType": "bytes32",
          "name": "role",
          "type": "bytes32"
        }
      ],
      "name": "getRoleAdmin",
      "outputs": [
        {
          "internalType": "bytes32",
          "name": "",
          "type": "bytes32"
        }
      ],
      "stateMutability": "view",
      "type": "function"
    },
    {
      "inputs": [
        {
          "internalType": "bytes32",
          "name": "role",
          "type": "bytes32"
        },
        {
          "internalType": "address",
          "name": "account",
          "type": "address"
        }
      ],
      "name": "grantRole",
      "outputs": [],
      "stateMutability": "nonpayable",
      "type": "function"
    },
    {
      "inputs": [
        {
          "internalType": "bytes32",
          "name": "role",
          "type": "bytes32"
        },
        {
          "internalType": "address",
          "name": "account",
          "type": "address"
        }
      ],
      "name": "hasRole",
      "outputs": [
        {
          "internalType": "bool",
          "name": "",
          "type": "bool"
        }
      ],
      "stateMutability": "view",
      "type": "function"
    },
    {
      "inputs": [],
      "name": "recieve",
      "outputs": [],
      "stateMutability": "payable",
      "type": "function"
    },
    {
      "inputs": [
        {
          "internalType": "address[]",
          "name": "tokens",
          "type": "address[]"
        }
      ],
      "name": "removeStableCoins",
      "outputs": [],
      "stateMutability": "nonpayable",
      "type": "function"
    },
    {
      "inputs": [
        {
          "internalType": "address[]",
          "name": "users",
          "type": "address[]"
        }
      ],
      "name": "removeUsers",
      "outputs": [],
      "stateMutability": "nonpayable",
      "type": "function"
    },
    {
      "inputs": [
        {
          "internalType": "bytes32",
          "name": "role",
          "type": "bytes32"
        },
        {
          "internalType": "address",
          "name": "account",
          "type": "address"
        }
      ],
      "name": "renounceRole",
      "outputs": [],
      "stateMutability": "nonpayable",
      "type": "function"
    },
    {
      "inputs": [
        {
          "internalType": "bytes32",
          "name": "role",
          "type": "bytes32"
        },
        {
          "internalType": "address",
          "name": "account",
          "type": "address"
        }
      ],
      "name": "revokeRole",
      "outputs": [],
      "stateMutability": "nonpayable",
      "type": "function"
    },
    {
      "inputs": [
        {
          "internalType": "address",
          "name": "ref",
          "type": "address"
        },
        {
          "internalType": "address",
          "name": "_token",
          "type": "address"
        },
        {
          "internalType": "uint256",
          "name": "amount",
          "type": "uint256"
        }
      ],
      "name": "stableBuy",
      "outputs": [],
      "stateMutability": "payable",
      "type": "function"
    },
    {
      "inputs": [
        {
          "internalType": "bytes4",
          "name": "interfaceId",
          "type": "bytes4"
        }
      ],
      "name": "supportsInterface",
      "outputs": [
        {
          "internalType": "bool",
          "name": "",
          "type": "bool"
        }
      ],
      "stateMutability": "view",
      "type": "function"
    },
    {
      "inputs": [],
      "name": "token",
      "outputs": [
        {
          "internalType": "contract Token",
          "name": "",
          "type": "address"
        }
      ],
      "stateMutability": "view",
      "type": "function"
    },
    {
      "inputs": [
        {
          "internalType": "address",
          "name": "",
          "type": "address"
        }
      ],
      "name": "verified",
      "outputs": [
        {
          "internalType": "bool",
          "name": "",
          "type": "bool"
        }
      ],
      "stateMutability": "view",
      "type": "function"
    }
  ],
  "bytecode": "0x6080604052600080516020620016b98339815191526003557f3ad8ed3e368783ee4585bc47a56e79dca48fef21d48900016e8700a420ec14aa600455686c6b935b8bbd4000006005553480156200005557600080fd5b50604051620016d9380380620016d9833981016040819052620000789162000194565b600680546001600160a01b0319166001600160a01b038316179055620000a0600033620000e4565b620000bb600080516020620016b983398151915233620000e4565b5060088054336001600160a01b03199182168117909255600780549091169091179055620001c6565b620000f08282620000f4565b5050565b6000828152602081815260408083206001600160a01b038516845290915290205460ff16620000f0576000828152602081815260408083206001600160a01b03851684529091529020805460ff19166001179055620001503390565b6001600160a01b0316816001600160a01b0316837f2f8788117e7eff1d82e926ec794901d17c78024a50270940304540a733656f0d60405160405180910390a45050565b600060208284031215620001a757600080fd5b81516001600160a01b0381168114620001bf57600080fd5b9392505050565b6114e380620001d66000396000f3fe6080604052600436106101355760003560e01c80635e79b556116100ab5780639d5314c21161006f5780639d5314c21461036b578063a05b52fa1461038b578063a217fddf14610393578063a9e10bf2146101fd578063d547741f146103a8578063fc0c546a146103c857600080fd5b80635e79b556146102d55780636260f55b146102f5578063700c94741461030b57806391d148541461032b5780639b3a4f561461034b57600080fd5b80632edd8d0c116100fd5780632edd8d0c1461021f5780632f2ff15d1461023257806336568abe14610252578063421b2d8b146102725780634475c974146102925780635110dc11146102a557600080fd5b806301ffc9a71461013a5780630db065f41461016f578063248a9ca31461019f57806325348a78146101dd5780632be4a903146101ff575b600080fd5b34801561014657600080fd5b5061015a61015536600461126f565b610400565b60405190151581526020015b60405180910390f35b34801561017b57600080fd5b5061015a61018a3660046110e5565b60016020526000908152604090205460ff1681565b3480156101ab57600080fd5b506101cf6101ba36600461122a565b60009081526020819052604090206001015490565b604051908152602001610166565b3480156101e957600080fd5b506101fd6101f836600461113c565b610437565b005b34801561020b57600080fd5b506101fd61021a36600461113c565b6104b0565b6101fd61022d366004611100565b610524565b34801561023e57600080fd5b506101fd61024d366004611243565b6106e0565b34801561025e57600080fd5b506101fd61026d366004611243565b610705565b34801561027e57600080fd5b506101fd61028d3660046110e5565b610783565b6101fd6102a03660046110e5565b6107b7565b3480156102b157600080fd5b5061015a6102c03660046110e5565b60026020526000908152604090205460ff1681565b3480156102e157600080fd5b506101cf6102f036600461122a565b61087f565b34801561030157600080fd5b506101cf60055481565b34801561031757600080fd5b506101fd61032636600461113c565b61094e565b34801561033757600080fd5b5061015a610346366004611243565b6109c1565b34801561035757600080fd5b506101fd6103663660046110e5565b6109ea565b34801561037757600080fd5b506101fd61038636600461113c565b610a22565b6101fd610a96565b34801561039f57600080fd5b506101cf600081565b3480156103b457600080fd5b506101fd6103c3366004611243565b610b35565b3480156103d457600080fd5b506006546103e8906001600160a01b031681565b6040516001600160a01b039091168152602001610166565b60006001600160e01b03198216637965db0b60e01b148061043157506301ffc9a760e01b6001600160e01b03198316145b92915050565b60045461044381610b5a565b60005b82518110156104ab5760016002600085848151811061046757610467611481565b6020908102919091018101516001600160a01b03168252810191909152604001600020805460ff1916911515919091179055806104a38161143a565b915050610446565b505050565b6003546104bc81610b5a565b60005b82518110156104ab576000600160008584815181106104e0576104e0611481565b6020908102919091018101516001600160a01b03168252810191909152604001600020805460ff19169115159190911790558061051c8161143a565b9150506104bf565b6001600160a01b038216600090815260026020526040902054829060ff166105a15760405162461bcd60e51b815260206004820152602560248201527f546f6b656e2773206e6f74206176616961626c6520746f2070617920666f72206044820152643a37b5b2b760d91b60648201526084015b60405180910390fd5b3360009081526001602052604090205460ff166105d05760405162461bcd60e51b81526004016105989061135a565b6006546008546040516323b872dd60e01b81523360048201526001600160a01b039182166024820152604481018590529116906323b872dd90606401602060405180830381600087803b15801561062657600080fd5b505af115801561063a573d6000803e3d6000fd5b505050506040513d601f19601f8201168201806040525081019061065e9190611208565b506001600160a01b03841660009081526001602052604090205460ff1680156106905750336001600160a01b03851614155b156106b6576106b133856106ac85670de0b6b3a76400006113c1565b610b64565b6106da565b6007546106da9033906001600160a01b03166106ac85670de0b6b3a76400006113c1565b50505050565b6000828152602081905260409020600101546106fb81610b5a565b6104ab8383610c47565b6001600160a01b03811633146107755760405162461bcd60e51b815260206004820152602f60248201527f416363657373436f6e74726f6c3a2063616e206f6e6c792072656e6f756e636560448201526e103937b632b9903337b91039b2b63360891b6064820152608401610598565b61077f8282610ccb565b5050565b60035461078f81610b5a565b506001600160a01b03166000908152600160208190526040909120805460ff19169091179055565b3360009081526001602052604090205460ff166107e65760405162461bcd60e51b81526004016105989061135a565b60006108006102f060055434610d3090919063ffffffff16565b6008546040519192506001600160a01b0316903480156108fc02916000818181858888f1935050505015801561083a573d6000803e3d6000fd5b506001600160a01b03821660009081526001602052604090205460ff16156108675761077f338383610b64565b60075461077f9033906001600160a01b031683610b64565b600080600660009054906101000a90046001600160a01b03166001600160a01b03166318160ddd6040518163ffffffff1660e01b815260040160206040518083038186803b1580156108d057600080fd5b505afa1580156108e4573d6000803e3d6000fd5b505050506040513d601f19601f820116820180604052508101906109089190611299565b90508061093d61091882806113c1565b6109238660026113c1565b61092e9060056113c1565b6109389190611387565b610d3c565b61094791906113e0565b9392505050565b60035461095a81610b5a565b60005b82518110156104ab57600180600085848151811061097d5761097d611481565b6020908102919091018101516001600160a01b03168252810191909152604001600020805460ff1916911515919091179055806109b98161143a565b91505061095d565b6000918252602082815260408084206001600160a01b0393909316845291905290205460ff1690565b60006109f581610b5a565b50600880546001600160a01b039092166001600160a01b0319928316811790915560078054909216179055565b600454610a2e81610b5a565b60005b82518110156104ab57600060026000858481518110610a5257610a52611481565b6020908102919091018101516001600160a01b03168252810191909152604001600020805460ff191691151591909117905580610a8e8161143a565b915050610a31565b3360009081526001602052604090205460ff16610ac55760405162461bcd60e51b81526004016105989061135a565b6000610adf6102f060055434610d3090919063ffffffff16565b6008546040519192506001600160a01b0316903480156108fc02916000818181858888f19350505050158015610b19573d6000803e3d6000fd5b50600754610b329033906001600160a01b031683610b64565b50565b600082815260208190526040902060010154610b5081610b5a565b6104ab8383610ccb565b610b328133610ea7565b6007546001600160a01b03838116911614610c0e576006546001600160a01b0316633c173a4f848385610b98826019610f0b565b6040516001600160e01b031960e087901b1681526001600160a01b03948516600482015260248101939093529216604482015260648101919091526084015b600060405180830381600087803b158015610bf157600080fd5b505af1158015610c05573d6000803e3d6000fd5b50505050505050565b6006546040516340c10f1960e01b81526001600160a01b03858116600483015260248201849052909116906340c10f1990604401610bd7565b610c5182826109c1565b61077f576000828152602081815260408083206001600160a01b03851684529091529020805460ff19166001179055610c873390565b6001600160a01b0316816001600160a01b0316837f2f8788117e7eff1d82e926ec794901d17c78024a50270940304540a733656f0d60405160405180910390a45050565b610cd582826109c1565b1561077f576000828152602081815260408083206001600160a01b0385168085529252808320805460ff1916905551339285917ff6391f5c32d9c69d2a47ea670b442974b53935d1edc7fd64eb21e047a839171b9190a45050565b600061094782846113c1565b600081610d4b57506000919050565b600182608081901c15610d635760409190911b9060801c5b604081901c15610d785760209190911b9060401c5b602081901c15610d8d5760109190911b9060201c5b601081901c15610da25760089190911b9060101c5b600881901c15610db75760049190911b9060081c5b600481901c15610dcc5760029190911b9060041c5b600281901c15610dde57600182901b91505b6001828581610def57610def61146b565b048301901c91506001828581610e0757610e0761146b565b048301901c91506001828581610e1f57610e1f61146b565b048301901c91506001828581610e3757610e3761146b565b048301901c91506001828581610e4f57610e4f61146b565b048301901c91506001828581610e6757610e6761146b565b048301901c91506001828581610e7f57610e7f61146b565b048301901c9150610e9f82838681610e9957610e9961146b565b04610f17565b949350505050565b610eb182826109c1565b61077f57610ec9816001600160a01b03166014610f2d565b610ed4836020610f2d565b604051602001610ee59291906112b2565b60408051601f198184030181529082905262461bcd60e51b825261059891600401611327565b6000610947828461139f565b6000818310610f265781610947565b5090919050565b60606000610f3c8360026113c1565b610f47906002611387565b67ffffffffffffffff811115610f5f57610f5f611497565b6040519080825280601f01601f191660200182016040528015610f89576020820181803683370190505b509050600360fc1b81600081518110610fa457610fa4611481565b60200101906001600160f81b031916908160001a905350600f60fb1b81600181518110610fd357610fd3611481565b60200101906001600160f81b031916908160001a9053506000610ff78460026113c1565b611002906001611387565b90505b600181111561107a576f181899199a1a9b1b9c1cb0b131b232b360811b85600f166010811061103657611036611481565b1a60f81b82828151811061104c5761104c611481565b60200101906001600160f81b031916908160001a90535060049490941c9361107381611423565b9050611005565b5083156109475760405162461bcd60e51b815260206004820181905260248201527f537472696e67733a20686578206c656e67746820696e73756666696369656e746044820152606401610598565b80356001600160a01b03811681146110e057600080fd5b919050565b6000602082840312156110f757600080fd5b610947826110c9565b60008060006060848603121561111557600080fd5b61111e846110c9565b925061112c602085016110c9565b9150604084013590509250925092565b6000602080838503121561114f57600080fd5b823567ffffffffffffffff8082111561116757600080fd5b818501915085601f83011261117b57600080fd5b81358181111561118d5761118d611497565b8060051b604051601f19603f830116810181811085821117156111b2576111b2611497565b604052828152858101935084860182860187018a10156111d157600080fd5b600095505b838610156111fb576111e7816110c9565b8552600195909501949386019386016111d6565b5098975050505050505050565b60006020828403121561121a57600080fd5b8151801515811461094757600080fd5b60006020828403121561123c57600080fd5b5035919050565b6000806040838503121561125657600080fd5b82359150611266602084016110c9565b90509250929050565b60006020828403121561128157600080fd5b81356001600160e01b03198116811461094757600080fd5b6000602082840312156112ab57600080fd5b5051919050565b7f416363657373436f6e74726f6c3a206163636f756e74200000000000000000008152600083516112ea8160178501602088016113f7565b7001034b99036b4b9b9b4b733903937b6329607d1b601791840191820152835161131b8160288401602088016113f7565b01602801949350505050565b60208152600082518060208401526113468160408501602087016113f7565b601f01601f19169190910160400192915050565b602080825260139082015272165bdd49dc99481b9bdd081d995c9a599a5959606a1b604082015260600190565b6000821982111561139a5761139a611455565b500190565b6000826113bc57634e487b7160e01b600052601260045260246000fd5b500490565b60008160001904831182151516156113db576113db611455565b500290565b6000828210156113f2576113f2611455565b500390565b60005b838110156114125781810151838201526020016113fa565b838111156106da5750506000910152565b60008161143257611432611455565b506000190190565b600060001982141561144e5761144e611455565b5060010190565b634e487b7160e01b600052601160045260246000fd5b634e487b7160e01b600052601260045260246000fd5b634e487b7160e01b600052603260045260246000fd5b634e487b7160e01b600052604160045260246000fdfea264697066735822122025683dcb2980c3df0295313455aa8fea3c4d7f3df37dd38dc2d7238b84096d7e64736f6c6343000807003354a3c050e04f39f531ec7f1f412f379e03766712c010363fe2f6f3f9c4150a45",
  "linkReferences": {},
  "deployedLinkReferences": {}
}