{
  "_format": "hh-sol-artifact-1",
  "contractName": "TSM",
  "sourceName": "contracts/TSM.sol",
  "abi": [
    {
      "inputs": [
        {
          "internalType": "address",
          "name": "_token",
          "type": "address"
        }
      ],
      "stateMutability": "nonpayable",
      "type": "constructor"
    },
    {
      "anonymous": false,
      "inputs": [
        {
          "indexed": true,
          "internalType": "bytes32",
          "name": "role",
          "type": "bytes32"
        },
        {
          "indexed": true,
          "internalType": "bytes32",
          "name": "previousAdminRole",
          "type": "bytes32"
        },
        {
          "indexed": true,
          "internalType": "bytes32",
          "name": "newAdminRole",
          "type": "bytes32"
        }
      ],
      "name": "RoleAdminChanged",
      "type": "event"
    },
    {
      "anonymous": false,
      "inputs": [
        {
          "indexed": true,
          "internalType": "bytes32",
          "name": "role",
          "type": "bytes32"
        },
        {
          "indexed": true,
          "internalType": "address",
          "name": "account",
          "type": "address"
        },
        {
          "indexed": true,
          "internalType": "address",
          "name": "sender",
          "type": "address"
        }
      ],
      "name": "RoleGranted",
      "type": "event"
    },
    {
      "anonymous": false,
      "inputs": [
        {
          "indexed": true,
          "internalType": "bytes32",
          "name": "role",
          "type": "bytes32"
        },
        {
          "indexed": true,
          "internalType": "address",
          "name": "account",
          "type": "address"
        },
        {
          "indexed": true,
          "internalType": "address",
          "name": "sender",
          "type": "address"
        }
      ],
      "name": "RoleRevoked",
      "type": "event"
    },
    {
      "inputs": [],
      "name": "DEFAULT_ADMIN_ROLE",
      "outputs": [
        {
          "internalType": "bytes32",
          "name": "",
          "type": "bytes32"
        }
      ],
      "stateMutability": "view",
      "type": "function"
    },
    {
      "inputs": [],
      "name": "ETH_USD",
      "outputs": [
        {
          "internalType": "uint256",
          "name": "",
          "type": "uint256"
        }
      ],
      "stateMutability": "view",
      "type": "function"
    },
    {
      "inputs": [
        {
          "internalType": "address",
          "name": "faucet",
          "type": "address"
        }
      ],
      "name": "SetFaucet",
      "outputs": [],
      "stateMutability": "nonpayable",
      "type": "function"
    },
    {
      "inputs": [
        {
          "internalType": "address[]",
          "name": "tokens",
          "type": "address[]"
        }
      ],
      "name": "addStableCoins",
      "outputs": [],
      "stateMutability": "nonpayable",
      "type": "function"
    },
    {
      "inputs": [
        {
          "internalType": "address",
          "name": "user",
          "type": "address"
        }
      ],
      "name": "addUser",
      "outputs": [],
      "stateMutability": "nonpayable",
      "type": "function"
    },
    {
      "inputs": [
        {
          "internalType": "address[]",
          "name": "users",
          "type": "address[]"
        }
      ],
      "name": "addUsers",
      "outputs": [],
      "stateMutability": "nonpayable",
      "type": "function"
    },
    {
      "inputs": [
        {
          "internalType": "uint256",
          "name": "_amountUSD",
          "type": "uint256"
        }
      ],
      "name": "amountToSend",
      "outputs": [
        {
          "internalType": "uint256",
          "name": "",
          "type": "uint256"
        }
      ],
      "stateMutability": "view",
      "type": "function"
    },
    {
      "inputs": [
        {
          "internalType": "address",
          "name": "",
          "type": "address"
        }
      ],
      "name": "avaiableStableCoin",
      "outputs": [
        {
          "internalType": "bool",
          "name": "",
          "type": "bool"
        }
      ],
      "stateMutability": "view",
      "type": "function"
    },
    {
      "inputs": [
        {
          "internalType": "address",
          "name": "ref",
          "type": "address"
        }
      ],
      "name": "ethBuyWithRef",
      "outputs": [],
      "stateMutability": "payable",
      "type": "function"
    },
    {
      "inputs": [],
      "name": "ethBuyWithoutRef",
      "outputs": [],
      "stateMutability": "payable",
      "type": "function"
    },
    {
      "inputs": [
        {
          "internalType": "bytes32",
          "name": "role",
          "type": "bytes32"
        }
      ],
      "name": "getRoleAdmin",
      "outputs": [
        {
          "internalType": "bytes32",
          "name": "",
          "type": "bytes32"
        }
      ],
      "stateMutability": "view",
      "type": "function"
    },
    {
      "inputs": [
        {
          "internalType": "bytes32",
          "name": "role",
          "type": "bytes32"
        },
        {
          "internalType": "address",
          "name": "account",
          "type": "address"
        }
      ],
      "name": "grantRole",
      "outputs": [],
      "stateMutability": "nonpayable",
      "type": "function"
    },
    {
      "inputs": [
        {
          "internalType": "bytes32",
          "name": "role",
          "type": "bytes32"
        },
        {
          "internalType": "address",
          "name": "account",
          "type": "address"
        }
      ],
      "name": "hasRole",
      "outputs": [
        {
          "internalType": "bool",
          "name": "",
          "type": "bool"
        }
      ],
      "stateMutability": "view",
      "type": "function"
    },
    {
      "inputs": [],
      "name": "recieve",
      "outputs": [],
      "stateMutability": "payable",
      "type": "function"
    },
    {
      "inputs": [
        {
          "internalType": "address[]",
          "name": "tokens",
          "type": "address[]"
        }
      ],
      "name": "removeStableCoins",
      "outputs": [],
      "stateMutability": "nonpayable",
      "type": "function"
    },
    {
      "inputs": [
        {
          "internalType": "address[]",
          "name": "users",
          "type": "address[]"
        }
      ],
      "name": "removeUsers",
      "outputs": [],
      "stateMutability": "nonpayable",
      "type": "function"
    },
    {
      "inputs": [
        {
          "internalType": "bytes32",
          "name": "role",
          "type": "bytes32"
        },
        {
          "internalType": "address",
          "name": "account",
          "type": "address"
        }
      ],
      "name": "renounceRole",
      "outputs": [],
      "stateMutability": "nonpayable",
      "type": "function"
    },
    {
      "inputs": [
        {
          "internalType": "bytes32",
          "name": "role",
          "type": "bytes32"
        },
        {
          "internalType": "address",
          "name": "account",
          "type": "address"
        }
      ],
      "name": "revokeRole",
      "outputs": [],
      "stateMutability": "nonpayable",
      "type": "function"
    },
    {
      "inputs": [
        {
          "internalType": "address",
          "name": "ref",
          "type": "address"
        },
        {
          "internalType": "address",
          "name": "_token",
          "type": "address"
        },
        {
          "internalType": "uint256",
          "name": "amount",
          "type": "uint256"
        }
      ],
      "name": "stableBuy",
      "outputs": [],
      "stateMutability": "payable",
      "type": "function"
    },
    {
      "inputs": [
        {
          "internalType": "bytes4",
          "name": "interfaceId",
          "type": "bytes4"
        }
      ],
      "name": "supportsInterface",
      "outputs": [
        {
          "internalType": "bool",
          "name": "",
          "type": "bool"
        }
      ],
      "stateMutability": "view",
      "type": "function"
    },
    {
      "inputs": [],
      "name": "token",
      "outputs": [
        {
          "internalType": "contract Token",
          "name": "",
          "type": "address"
        }
      ],
      "stateMutability": "view",
      "type": "function"
    },
    {
      "inputs": [
        {
          "internalType": "address",
          "name": "",
          "type": "address"
        }
      ],
      "name": "verified",
      "outputs": [
        {
          "internalType": "bool",
          "name": "",
          "type": "bool"
        }
      ],
      "stateMutability": "view",
      "type": "function"
    }
  ],
  "bytecode": "0x6080604052600080516020620016a78339815191526003557f3ad8ed3e368783ee4585bc47a56e79dca48fef21d48900016e8700a420ec14aa6004556107d06005553480156200004e57600080fd5b50604051620016c7380380620016c783398101604081905262000071916200018d565b600680546001600160a01b0319166001600160a01b03831617905562000099600033620000dd565b620000b4600080516020620016a783398151915233620000dd565b5060088054336001600160a01b03199182168117909255600780549091169091179055620001bf565b620000e98282620000ed565b5050565b6000828152602081815260408083206001600160a01b038516845290915290205460ff16620000e9576000828152602081815260408083206001600160a01b03851684529091529020805460ff19166001179055620001493390565b6001600160a01b0316816001600160a01b0316837f2f8788117e7eff1d82e926ec794901d17c78024a50270940304540a733656f0d60405160405180910390a45050565b600060208284031215620001a057600080fd5b81516001600160a01b0381168114620001b857600080fd5b9392505050565b6114d880620001cf6000396000f3fe6080604052600436106101355760003560e01c80635e79b556116100ab5780639d5314c21161006f5780639d5314c21461036b578063a05b52fa1461038b578063a217fddf14610393578063a9e10bf2146101fd578063d547741f146103a8578063fc0c546a146103c857600080fd5b80635e79b556146102d55780636260f55b146102f5578063700c94741461030b57806391d148541461032b5780639b3a4f561461034b57600080fd5b80632edd8d0c116100fd5780632edd8d0c1461021f5780632f2ff15d1461023257806336568abe14610252578063421b2d8b146102725780634475c974146102925780635110dc11146102a557600080fd5b806301ffc9a71461013a5780630db065f41461016f578063248a9ca31461019f57806325348a78146101dd5780632be4a903146101ff575b600080fd5b34801561014657600080fd5b5061015a610155366004611264565b610400565b60405190151581526020015b60405180910390f35b34801561017b57600080fd5b5061015a61018a3660046110da565b60016020526000908152604090205460ff1681565b3480156101ab57600080fd5b506101cf6101ba36600461121f565b60009081526020819052604090206001015490565b604051908152602001610166565b3480156101e957600080fd5b506101fd6101f8366004611131565b610437565b005b34801561020b57600080fd5b506101fd61021a366004611131565b6104b0565b6101fd61022d3660046110f5565b610524565b34801561023e57600080fd5b506101fd61024d366004611238565b6106c3565b34801561025e57600080fd5b506101fd61026d366004611238565b6106e8565b34801561027e57600080fd5b506101fd61028d3660046110da565b610766565b6101fd6102a03660046110da565b61079a565b3480156102b157600080fd5b5061015a6102c03660046110da565b60026020526000908152604090205460ff1681565b3480156102e157600080fd5b506101cf6102f036600461121f565b610862565b34801561030157600080fd5b506101cf60055481565b34801561031757600080fd5b506101fd610326366004611131565b610943565b34801561033757600080fd5b5061015a610346366004611238565b6109b6565b34801561035757600080fd5b506101fd6103663660046110da565b6109df565b34801561037757600080fd5b506101fd610386366004611131565b610a17565b6101fd610a8b565b34801561039f57600080fd5b506101cf600081565b3480156103b457600080fd5b506101fd6103c3366004611238565b610b2a565b3480156103d457600080fd5b506006546103e8906001600160a01b031681565b6040516001600160a01b039091168152602001610166565b60006001600160e01b03198216637965db0b60e01b148061043157506301ffc9a760e01b6001600160e01b03198316145b92915050565b60045461044381610b4f565b60005b82518110156104ab5760016002600085848151811061046757610467611476565b6020908102919091018101516001600160a01b03168252810191909152604001600020805460ff1916911515919091179055806104a38161142f565b915050610446565b505050565b6003546104bc81610b4f565b60005b82518110156104ab576000600160008584815181106104e0576104e0611476565b6020908102919091018101516001600160a01b03168252810191909152604001600020805460ff19169115159190911790558061051c8161142f565b9150506104bf565b6001600160a01b038216600090815260026020526040902054829060ff166105a15760405162461bcd60e51b815260206004820152602560248201527f546f6b656e2773206e6f74206176616961626c6520746f2070617920666f72206044820152643a37b5b2b760d91b60648201526084015b60405180910390fd5b3360009081526001602052604090205460ff166105d05760405162461bcd60e51b81526004016105989061134f565b6006546008546040516323b872dd60e01b81523360048201526001600160a01b039182166024820152604481018590529116906323b872dd90606401602060405180830381600087803b15801561062657600080fd5b505af115801561063a573d6000803e3d6000fd5b505050506040513d601f19601f8201168201806040525081019061065e91906111fd565b506001600160a01b03841660009081526001602052604090205460ff1680156106905750336001600160a01b03851614155b156106a5576106a0338584610b59565b6106bd565b6007546106bd9033906001600160a01b031684610b59565b50505050565b6000828152602081905260409020600101546106de81610b4f565b6104ab8383610c3c565b6001600160a01b03811633146107585760405162461bcd60e51b815260206004820152602f60248201527f416363657373436f6e74726f6c3a2063616e206f6e6c792072656e6f756e636560448201526e103937b632b9903337b91039b2b63360891b6064820152608401610598565b6107628282610cc0565b5050565b60035461077281610b4f565b506001600160a01b03166000908152600160208190526040909120805460ff19169091179055565b3360009081526001602052604090205460ff166107c95760405162461bcd60e51b81526004016105989061134f565b60006107e36102f060055434610d2590919063ffffffff16565b6008546040519192506001600160a01b0316903480156108fc02916000818181858888f1935050505015801561081d573d6000803e3d6000fd5b506001600160a01b03821660009081526001602052604090205460ff161561084a57610762338383610b59565b6007546107629033906001600160a01b031683610b59565b600080600660009054906101000a90046001600160a01b03166001600160a01b03166318160ddd6040518163ffffffff1660e01b815260040160206040518083038186803b1580156108b357600080fd5b505afa1580156108c7573d6000803e3d6000fd5b505050506040513d601f19601f820116820180604052508101906108eb919061128e565b9050806109326108fb82806113b6565b61090d86670de0b6b3a76400006113b6565b6109189060026113b6565b6109239060056113b6565b61092d919061137c565b610d31565b61093c91906113d5565b9392505050565b60035461094f81610b4f565b60005b82518110156104ab57600180600085848151811061097257610972611476565b6020908102919091018101516001600160a01b03168252810191909152604001600020805460ff1916911515919091179055806109ae8161142f565b915050610952565b6000918252602082815260408084206001600160a01b0393909316845291905290205460ff1690565b60006109ea81610b4f565b50600880546001600160a01b039092166001600160a01b0319928316811790915560078054909216179055565b600454610a2381610b4f565b60005b82518110156104ab57600060026000858481518110610a4757610a47611476565b6020908102919091018101516001600160a01b03168252810191909152604001600020805460ff191691151591909117905580610a838161142f565b915050610a26565b3360009081526001602052604090205460ff16610aba5760405162461bcd60e51b81526004016105989061134f565b6000610ad46102f060055434610d2590919063ffffffff16565b6008546040519192506001600160a01b0316903480156108fc02916000818181858888f19350505050158015610b0e573d6000803e3d6000fd5b50600754610b279033906001600160a01b031683610b59565b50565b600082815260208190526040902060010154610b4581610b4f565b6104ab8383610cc0565b610b278133610e9c565b6007546001600160a01b03838116911614610c03576006546001600160a01b0316633c173a4f848385610b8d826019610f00565b6040516001600160e01b031960e087901b1681526001600160a01b03948516600482015260248101939093529216604482015260648101919091526084015b600060405180830381600087803b158015610be657600080fd5b505af1158015610bfa573d6000803e3d6000fd5b50505050505050565b6006546040516340c10f1960e01b81526001600160a01b03858116600483015260248201849052909116906340c10f1990604401610bcc565b610c4682826109b6565b610762576000828152602081815260408083206001600160a01b03851684529091529020805460ff19166001179055610c7c3390565b6001600160a01b0316816001600160a01b0316837f2f8788117e7eff1d82e926ec794901d17c78024a50270940304540a733656f0d60405160405180910390a45050565b610cca82826109b6565b15610762576000828152602081815260408083206001600160a01b0385168085529252808320805460ff1916905551339285917ff6391f5c32d9c69d2a47ea670b442974b53935d1edc7fd64eb21e047a839171b9190a45050565b600061093c82846113b6565b600081610d4057506000919050565b600182608081901c15610d585760409190911b9060801c5b604081901c15610d6d5760209190911b9060401c5b602081901c15610d825760109190911b9060201c5b601081901c15610d975760089190911b9060101c5b600881901c15610dac5760049190911b9060081c5b600481901c15610dc15760029190911b9060041c5b600281901c15610dd357600182901b91505b6001828581610de457610de4611460565b048301901c91506001828581610dfc57610dfc611460565b048301901c91506001828581610e1457610e14611460565b048301901c91506001828581610e2c57610e2c611460565b048301901c91506001828581610e4457610e44611460565b048301901c91506001828581610e5c57610e5c611460565b048301901c91506001828581610e7457610e74611460565b048301901c9150610e9482838681610e8e57610e8e611460565b04610f0c565b949350505050565b610ea682826109b6565b61076257610ebe816001600160a01b03166014610f22565b610ec9836020610f22565b604051602001610eda9291906112a7565b60408051601f198184030181529082905262461bcd60e51b82526105989160040161131c565b600061093c8284611394565b6000818310610f1b578161093c565b5090919050565b60606000610f318360026113b6565b610f3c90600261137c565b67ffffffffffffffff811115610f5457610f5461148c565b6040519080825280601f01601f191660200182016040528015610f7e576020820181803683370190505b509050600360fc1b81600081518110610f9957610f99611476565b60200101906001600160f81b031916908160001a905350600f60fb1b81600181518110610fc857610fc8611476565b60200101906001600160f81b031916908160001a9053506000610fec8460026113b6565b610ff790600161137c565b90505b600181111561106f576f181899199a1a9b1b9c1cb0b131b232b360811b85600f166010811061102b5761102b611476565b1a60f81b82828151811061104157611041611476565b60200101906001600160f81b031916908160001a90535060049490941c9361106881611418565b9050610ffa565b50831561093c5760405162461bcd60e51b815260206004820181905260248201527f537472696e67733a20686578206c656e67746820696e73756666696369656e746044820152606401610598565b80356001600160a01b03811681146110d557600080fd5b919050565b6000602082840312156110ec57600080fd5b61093c826110be565b60008060006060848603121561110a57600080fd5b611113846110be565b9250611121602085016110be565b9150604084013590509250925092565b6000602080838503121561114457600080fd5b823567ffffffffffffffff8082111561115c57600080fd5b818501915085601f83011261117057600080fd5b8135818111156111825761118261148c565b8060051b604051601f19603f830116810181811085821117156111a7576111a761148c565b604052828152858101935084860182860187018a10156111c657600080fd5b600095505b838610156111f0576111dc816110be565b8552600195909501949386019386016111cb565b5098975050505050505050565b60006020828403121561120f57600080fd5b8151801515811461093c57600080fd5b60006020828403121561123157600080fd5b5035919050565b6000806040838503121561124b57600080fd5b8235915061125b602084016110be565b90509250929050565b60006020828403121561127657600080fd5b81356001600160e01b03198116811461093c57600080fd5b6000602082840312156112a057600080fd5b5051919050565b7f416363657373436f6e74726f6c3a206163636f756e74200000000000000000008152600083516112df8160178501602088016113ec565b7001034b99036b4b9b9b4b733903937b6329607d1b60179184019182015283516113108160288401602088016113ec565b01602801949350505050565b602081526000825180602084015261133b8160408501602087016113ec565b601f01601f19169190910160400192915050565b602080825260139082015272165bdd49dc99481b9bdd081d995c9a599a5959606a1b604082015260600190565b6000821982111561138f5761138f61144a565b500190565b6000826113b157634e487b7160e01b600052601260045260246000fd5b500490565b60008160001904831182151516156113d0576113d061144a565b500290565b6000828210156113e7576113e761144a565b500390565b60005b838110156114075781810151838201526020016113ef565b838111156106bd5750506000910152565b6000816114275761142761144a565b506000190190565b60006000198214156114435761144361144a565b5060010190565b634e487b7160e01b600052601160045260246000fd5b634e487b7160e01b600052601260045260246000fd5b634e487b7160e01b600052603260045260246000fd5b634e487b7160e01b600052604160045260246000fdfea264697066735822122065d64449f2136feebab4647af673694834008b8896068f16d92f8628d4fa107a64736f6c6343000807003354a3c050e04f39f531ec7f1f412f379e03766712c010363fe2f6f3f9c4150a45",
  "linkReferences": {},
  "deployedLinkReferences": {}
}