{
    "_format": "hh-sol-artifact-1",
    "contractName": "TSM",
    "sourceName": "contracts/TSM.sol",
    "abi": [
        {
            "inputs": [
                {
                    "internalType": "address",
                    "name": "_token",
                    "type": "address"
                }
            ],
            "stateMutability": "nonpayable",
            "type": "constructor"
        },
        {
            "anonymous": false,
            "inputs": [
                {
                    "indexed": true,
                    "internalType": "bytes32",
                    "name": "id",
                    "type": "bytes32"
                }
            ],
            "name": "ChainlinkCancelled",
            "type": "event"
        },
        {
            "anonymous": false,
            "inputs": [
                {
                    "indexed": true,
                    "internalType": "bytes32",
                    "name": "id",
                    "type": "bytes32"
                }
            ],
            "name": "ChainlinkFulfilled",
            "type": "event"
        },
        {
            "anonymous": false,
            "inputs": [
                {
                    "indexed": true,
                    "internalType": "bytes32",
                    "name": "id",
                    "type": "bytes32"
                }
            ],
            "name": "ChainlinkRequested",
            "type": "event"
        },
        {
            "anonymous": false,
            "inputs": [
                {
                    "indexed": true,
                    "internalType": "address",
                    "name": "from",
                    "type": "address"
                },
                {
                    "indexed": true,
                    "internalType": "address",
                    "name": "to",
                    "type": "address"
                }
            ],
            "name": "OwnershipTransferRequested",
            "type": "event"
        },
        {
            "anonymous": false,
            "inputs": [
                {
                    "indexed": true,
                    "internalType": "address",
                    "name": "from",
                    "type": "address"
                },
                {
                    "indexed": true,
                    "internalType": "address",
                    "name": "to",
                    "type": "address"
                }
            ],
            "name": "OwnershipTransferred",
            "type": "event"
        },
        {
            "anonymous": false,
            "inputs": [
                {
                    "indexed": true,
                    "internalType": "bytes32",
                    "name": "requestId",
                    "type": "bytes32"
                },
                {
                    "indexed": false,
                    "internalType": "uint256",
                    "name": "ETH_USD",
                    "type": "uint256"
                },
                {
                    "indexed": false,
                    "internalType": "uint256",
                    "name": "LINK_USD",
                    "type": "uint256"
                }
            ],
            "name": "RequestMultipleFulfilled",
            "type": "event"
        },
        {
            "anonymous": false,
            "inputs": [
                {
                    "indexed": true,
                    "internalType": "bytes32",
                    "name": "role",
                    "type": "bytes32"
                },
                {
                    "indexed": true,
                    "internalType": "bytes32",
                    "name": "previousAdminRole",
                    "type": "bytes32"
                },
                {
                    "indexed": true,
                    "internalType": "bytes32",
                    "name": "newAdminRole",
                    "type": "bytes32"
                }
            ],
            "name": "RoleAdminChanged",
            "type": "event"
        },
        {
            "anonymous": false,
            "inputs": [
                {
                    "indexed": true,
                    "internalType": "bytes32",
                    "name": "role",
                    "type": "bytes32"
                },
                {
                    "indexed": true,
                    "internalType": "address",
                    "name": "account",
                    "type": "address"
                },
                {
                    "indexed": true,
                    "internalType": "address",
                    "name": "sender",
                    "type": "address"
                }
            ],
            "name": "RoleGranted",
            "type": "event"
        },
        {
            "anonymous": false,
            "inputs": [
                {
                    "indexed": true,
                    "internalType": "bytes32",
                    "name": "role",
                    "type": "bytes32"
                },
                {
                    "indexed": true,
                    "internalType": "address",
                    "name": "account",
                    "type": "address"
                },
                {
                    "indexed": true,
                    "internalType": "address",
                    "name": "sender",
                    "type": "address"
                }
            ],
            "name": "RoleRevoked",
            "type": "event"
        },
        {
            "inputs": [],
            "name": "DEFAULT_ADMIN_ROLE",
            "outputs": [
                {
                    "internalType": "bytes32",
                    "name": "",
                    "type": "bytes32"
                }
            ],
            "stateMutability": "view",
            "type": "function"
        },
        {
            "inputs": [],
            "name": "ETH_LINK",
            "outputs": [
                {
                    "internalType": "uint256",
                    "name": "",
                    "type": "uint256"
                }
            ],
            "stateMutability": "view",
            "type": "function"
        },
        {
            "inputs": [],
            "name": "ETH_USD",
            "outputs": [
                {
                    "internalType": "uint256",
                    "name": "",
                    "type": "uint256"
                }
            ],
            "stateMutability": "view",
            "type": "function"
        },
        {
            "inputs": [],
            "name": "OneTokenPrice",
            "outputs": [
                {
                    "internalType": "uint256",
                    "name": "",
                    "type": "uint256"
                }
            ],
            "stateMutability": "view",
            "type": "function"
        },
        {
            "inputs": [],
            "name": "acceptOwnership",
            "outputs": [],
            "stateMutability": "nonpayable",
            "type": "function"
        },
        {
            "inputs": [
                {
                    "internalType": "address[]",
                    "name": "tokens",
                    "type": "address[]"
                }
            ],
            "name": "addStableCoins",
            "outputs": [],
            "stateMutability": "nonpayable",
            "type": "function"
        },
        {
            "inputs": [
                {
                    "internalType": "address",
                    "name": "user",
                    "type": "address"
                }
            ],
            "name": "addUser",
            "outputs": [],
            "stateMutability": "nonpayable",
            "type": "function"
        },
        {
            "inputs": [
                {
                    "internalType": "address[]",
                    "name": "users",
                    "type": "address[]"
                }
            ],
            "name": "addUsers",
            "outputs": [],
            "stateMutability": "nonpayable",
            "type": "function"
        },
        {
            "inputs": [
                {
                    "internalType": "uint256",
                    "name": "_amountUSD",
                    "type": "uint256"
                }
            ],
            "name": "amountToSend",
            "outputs": [
                {
                    "internalType": "uint256",
                    "name": "",
                    "type": "uint256"
                }
            ],
            "stateMutability": "view",
            "type": "function"
        },
        {
            "inputs": [
                {
                    "internalType": "address",
                    "name": "",
                    "type": "address"
                }
            ],
            "name": "avaiableStableCoin",
            "outputs": [
                {
                    "internalType": "bool",
                    "name": "",
                    "type": "bool"
                }
            ],
            "stateMutability": "view",
            "type": "function"
        },
        {
            "inputs": [],
            "name": "balance",
            "outputs": [
                {
                    "internalType": "uint256",
                    "name": "",
                    "type": "uint256"
                }
            ],
            "stateMutability": "view",
            "type": "function"
        },
        {
            "inputs": [
                {
                    "internalType": "address",
                    "name": "ref",
                    "type": "address"
                }
            ],
            "name": "ethBuy",
            "outputs": [],
            "stateMutability": "payable",
            "type": "function"
        },
        {
            "inputs": [],
            "name": "ethBuyAmount",
            "outputs": [],
            "stateMutability": "payable",
            "type": "function"
        },
        {
            "inputs": [
                {
                    "internalType": "bytes32",
                    "name": "requestId",
                    "type": "bytes32"
                },
                {
                    "internalType": "uint256",
                    "name": "ethResponse",
                    "type": "uint256"
                },
                {
                    "internalType": "uint256",
                    "name": "linkResponse",
                    "type": "uint256"
                }
            ],
            "name": "fulfillMultipleParameters",
            "outputs": [],
            "stateMutability": "nonpayable",
            "type": "function"
        },
        {
            "inputs": [
                {
                    "internalType": "bytes32",
                    "name": "role",
                    "type": "bytes32"
                }
            ],
            "name": "getRoleAdmin",
            "outputs": [
                {
                    "internalType": "bytes32",
                    "name": "",
                    "type": "bytes32"
                }
            ],
            "stateMutability": "view",
            "type": "function"
        },
        {
            "inputs": [
                {
                    "internalType": "bytes32",
                    "name": "role",
                    "type": "bytes32"
                },
                {
                    "internalType": "address",
                    "name": "account",
                    "type": "address"
                }
            ],
            "name": "grantRole",
            "outputs": [],
            "stateMutability": "nonpayable",
            "type": "function"
        },
        {
            "inputs": [
                {
                    "internalType": "bytes32",
                    "name": "role",
                    "type": "bytes32"
                },
                {
                    "internalType": "address",
                    "name": "account",
                    "type": "address"
                }
            ],
            "name": "hasRole",
            "outputs": [
                {
                    "internalType": "bool",
                    "name": "",
                    "type": "bool"
                }
            ],
            "stateMutability": "view",
            "type": "function"
        },
        {
            "inputs": [],
            "name": "owner",
            "outputs": [
                {
                    "internalType": "address",
                    "name": "",
                    "type": "address"
                }
            ],
            "stateMutability": "view",
            "type": "function"
        },
        {
            "inputs": [],
            "name": "recieve",
            "outputs": [],
            "stateMutability": "payable",
            "type": "function"
        },
        {
            "inputs": [
                {
                    "internalType": "address[]",
                    "name": "tokens",
                    "type": "address[]"
                }
            ],
            "name": "removeStableCoins",
            "outputs": [],
            "stateMutability": "nonpayable",
            "type": "function"
        },
        {
            "inputs": [
                {
                    "internalType": "address[]",
                    "name": "users",
                    "type": "address[]"
                }
            ],
            "name": "removeUsers",
            "outputs": [],
            "stateMutability": "nonpayable",
            "type": "function"
        },
        {
            "inputs": [
                {
                    "internalType": "bytes32",
                    "name": "role",
                    "type": "bytes32"
                },
                {
                    "internalType": "address",
                    "name": "account",
                    "type": "address"
                }
            ],
            "name": "renounceRole",
            "outputs": [],
            "stateMutability": "nonpayable",
            "type": "function"
        },
        {
            "inputs": [],
            "name": "requestMultipleParameters",
            "outputs": [],
            "stateMutability": "nonpayable",
            "type": "function"
        },
        {
            "inputs": [
                {
                    "internalType": "bytes32",
                    "name": "role",
                    "type": "bytes32"
                },
                {
                    "internalType": "address",
                    "name": "account",
                    "type": "address"
                }
            ],
            "name": "revokeRole",
            "outputs": [],
            "stateMutability": "nonpayable",
            "type": "function"
        },
        {
            "inputs": [
                {
                    "internalType": "address",
                    "name": "ref",
                    "type": "address"
                },
                {
                    "internalType": "address",
                    "name": "_token",
                    "type": "address"
                },
                {
                    "internalType": "uint256",
                    "name": "amount",
                    "type": "uint256"
                }
            ],
            "name": "stableBuy",
            "outputs": [],
            "stateMutability": "payable",
            "type": "function"
        },
        {
            "inputs": [
                {
                    "internalType": "bytes4",
                    "name": "interfaceId",
                    "type": "bytes4"
                }
            ],
            "name": "supportsInterface",
            "outputs": [
                {
                    "internalType": "bool",
                    "name": "",
                    "type": "bool"
                }
            ],
            "stateMutability": "view",
            "type": "function"
        },
        {
            "inputs": [],
            "name": "token",
            "outputs": [
                {
                    "internalType": "contract Token",
                    "name": "",
                    "type": "address"
                }
            ],
            "stateMutability": "view",
            "type": "function"
        },
        {
            "inputs": [
                {
                    "internalType": "address",
                    "name": "to",
                    "type": "address"
                }
            ],
            "name": "transferOwnership",
            "outputs": [],
            "stateMutability": "nonpayable",
            "type": "function"
        },
        {
            "inputs": [
                {
                    "internalType": "address",
                    "name": "",
                    "type": "address"
                }
            ],
            "name": "verified",
            "outputs": [
                {
                    "internalType": "bool",
                    "name": "",
                    "type": "bool"
                }
            ],
            "stateMutability": "view",
            "type": "function"
        },
        {
            "inputs": [],
            "name": "withdrawLink",
            "outputs": [],
            "stateMutability": "nonpayable",
            "type": "function"
        }
    ],
    "bytecode": "0x608060405260016004556859fd20b4f16c700000600a55680bdf3c4bb0328c0000600b5560008051602062002d2a833981519152600f557f3ad8ed3e368783ee4585bc47a56e79dca48fef21d48900016e8700a420ec14aa6010553480156200006757600080fd5b5060405162002d4a38038062002d4a8339810160408190526200008a9162000645565b3380600081620000e15760405162461bcd60e51b815260206004820152601860248201527f43616e6e6f7420736574206f776e657220746f207a65726f000000000000000060448201526064015b60405180910390fd5b600680546001600160a01b0319166001600160a01b03848116919091179091558116156200011457620001148162000223565b5050506200013c7301be23585060835e02b77ef475b0cc51aa1e0709620002d060201b60201c565b600380546001600160a01b03191673f3fbb7f3391f62c8fe53f89b41dfc8159ee9653f1790557f3533663937353539323063643435316138666534366635303837343638333935600855600a6200019d670de0b6b3a764000060016200075c565b620001a9919062000739565b600955601280546001600160a01b0319166001600160a01b038316179055620001d4600033620002f2565b620001ef60008051602062002d2a83398151915233620002f2565b620001fa3362000302565b5060138054336001600160a01b031991821681179092556011805490911690911790556200080d565b6001600160a01b0381163314156200027e5760405162461bcd60e51b815260206004820152601760248201527f43616e6e6f74207472616e7366657220746f2073656c660000000000000000006044820152606401620000d8565b600780546001600160a01b0319166001600160a01b03838116918217909255600654604051919216907fed8889f560326eb138920d842192f0eb3dd22b4f139c87a2c57538e05bae127890600090a350565b600280546001600160a01b0319166001600160a01b0392909216919091179055565b620002fe828262000335565b5050565b600f546200031081620003d9565b506001600160a01b03166000908152600d60205260409020805460ff19166001179055565b6000828152600c602090815260408083206001600160a01b038516845290915290205460ff16620002fe576000828152600c602090815260408083206001600160a01b03851684529091529020805460ff19166001179055620003953390565b6001600160a01b0316816001600160a01b0316837f2f8788117e7eff1d82e926ec794901d17c78024a50270940304540a733656f0d60405160405180910390a45050565b620003e58133620003e8565b50565b6000828152600c602090815260408083206001600160a01b038516845290915290205460ff16620002fe5762000434816001600160a01b031660146200048560201b620011c31760201c565b6200044a836020620011c362000485821b17811c565b6040516020016200045d92919062000670565b60408051601f198184030181529082905262461bcd60e51b8252620000d891600401620006e9565b60606000620004968360026200075c565b620004a39060026200071e565b6001600160401b03811115620004bd57620004bd620007f7565b6040519080825280601f01601f191660200182016040528015620004e8576020820181803683370190505b509050600360fc1b81600081518110620005065762000506620007e1565b60200101906001600160f81b031916908160001a905350600f60fb1b81600181518110620005385762000538620007e1565b60200101906001600160f81b031916908160001a90535060006200055e8460026200075c565b6200056b9060016200071e565b90505b6001811115620005ed576f181899199a1a9b1b9c1cb0b131b232b360811b85600f1660108110620005a357620005a3620007e1565b1a60f81b828281518110620005bc57620005bc620007e1565b60200101906001600160f81b031916908160001a90535060049490941c93620005e581620007b1565b90506200056e565b5083156200063e5760405162461bcd60e51b815260206004820181905260248201527f537472696e67733a20686578206c656e67746820696e73756666696369656e746044820152606401620000d8565b9392505050565b6000602082840312156200065857600080fd5b81516001600160a01b03811681146200063e57600080fd5b7f416363657373436f6e74726f6c3a206163636f756e7420000000000000000000815260008351620006aa8160178501602088016200077e565b7001034b99036b4b9b9b4b733903937b6329607d1b6017918401918201528351620006dd8160288401602088016200077e565b01602801949350505050565b60208152600082518060208401526200070a8160408501602087016200077e565b601f01601f19169190910160400192915050565b60008219821115620007345762000734620007cb565b500190565b6000826200075757634e487b7160e01b600052601260045260246000fd5b500490565b6000816000190483118215151615620007795762000779620007cb565b500290565b60005b838110156200079b57818101518382015260200162000781565b83811115620007ab576000848401525b50505050565b600081620007c357620007c3620007cb565b506000190190565b634e487b7160e01b600052601160045260246000fd5b634e487b7160e01b600052603260045260246000fd5b634e487b7160e01b600052604160045260246000fd5b61250d806200081d6000396000f3fe6080604052600436106101cd5760003560e01c80636260f55b116100f75780639d5314c211610095578063d547741f11610064578063d547741f146104e7578063f2fde38b14610507578063f74f121414610527578063fc0c546a1461052f57600080fd5b80639d5314c21461049f578063a217fddf146104bf578063a9e10bf214610295578063b69ef8a8146104d457600080fd5b806379ba5097116100d157806379ba5097146104235780638da5cb5b146104385780638dc654a21461046a57806391d148541461047f57600080fd5b80636260f55b146103d8578063700c9474146103ee578063722f81b21461040e57600080fd5b80632f2ff15d1161016f5780634a3afb471161013e5780634a3afb471461035d5780634f9bfaa1146103725780635110dc11146103885780635e79b556146103b857600080fd5b80632f2ff15d146102dd57806336568abe146102fd57806337d36fef1461031d578063421b2d8b1461033d57600080fd5b806325348a78116101ab57806325348a78146102755780632b218e18146102975780632be4a903146102aa5780632edd8d0c146102ca57600080fd5b806301ffc9a7146101d25780630db065f414610207578063248a9ca314610237575b600080fd5b3480156101de57600080fd5b506101f26101ed36600461207e565b61054f565b60405190151581526020015b60405180910390f35b34801561021357600080fd5b506101f2610222366004611ec8565b600d6020526000908152604090205460ff1681565b34801561024357600080fd5b5061026761025236600461200d565b6000908152600c602052604090206001015490565b6040519081526020016101fe565b34801561028157600080fd5b50610295610290366004611f1f565b610586565b005b6102956102a5366004611ec8565b6105ff565b3480156102b657600080fd5b506102956102c5366004611f1f565b6106d4565b6102956102d8366004611ee3565b610748565b3480156102e957600080fd5b506102956102f8366004612026565b6108ff565b34801561030957600080fd5b50610295610318366004612026565b610924565b34801561032957600080fd5b50610295610338366004612052565b61099e565b34801561034957600080fd5b50610295610358366004611ec8565b610aa2565b34801561036957600080fd5b50610295610ad3565b34801561037e57600080fd5b50610267600b5481565b34801561039457600080fd5b506101f26103a3366004611ec8565b600e6020526000908152604090205460ff1681565b3480156103c457600080fd5b506102676103d336600461200d565b610c1e565b3480156103e457600080fd5b50610267600a5481565b3480156103fa57600080fd5b50610295610409366004611f1f565b610ced565b34801561041a57600080fd5b50610267610d61565b34801561042f57600080fd5b50610295610e40565b34801561044457600080fd5b506006546001600160a01b03165b6040516001600160a01b0390911681526020016101fe565b34801561047657600080fd5b50610295610eee565b34801561048b57600080fd5b506101f261049a366004612026565b611050565b3480156104ab57600080fd5b506102956104ba366004611f1f565b61107b565b3480156104cb57600080fd5b50610267600081565b3480156104e057600080fd5b5047610267565b3480156104f357600080fd5b50610295610502366004612026565b6110f1565b34801561051357600080fd5b50610295610522366004611ec8565b611116565b610295611127565b34801561053b57600080fd5b50601254610452906001600160a01b031681565b60006001600160e01b03198216637965db0b60e01b148061058057506301ffc9a760e01b6001600160e01b03198316145b92915050565b6010546105928161135f565b60005b82518110156105fa576001600e60008584815181106105b6576105b661242c565b6020908102919091018101516001600160a01b03168252810191909152604001600020805460ff1916911515919091179055806105f2816123d1565b915050610595565b505050565b336000908152600d602052604090205460ff166106375760405162461bcd60e51b815260040161062e90612204565b60405180910390fd5b60006106516103d3600a543461136990919063ffffffff16565b6013546040519192506001600160a01b0316903480156108fc02916000818181858888f1935050505015801561068b573d6000803e3d6000fd5b506001600160a01b0382166000908152600d602052604090205460ff16156106bc576106b8338383611375565b5050565b6011546106b89033906001600160a01b031683611375565b600f546106e08161135f565b60005b82518110156105fa576000600d60008584815181106107045761070461242c565b6020908102919091018101516001600160a01b03168252810191909152604001600020805460ff191691151591909117905580610740816123d1565b9150506106e3565b6001600160a01b0382166000908152600e6020526040902054829060ff166107c05760405162461bcd60e51b815260206004820152602560248201527f546f6b656e2773206e6f74206176616961626c6520746f2070617920666f72206044820152643a37b5b2b760d91b606482015260840161062e565b336000908152600d602052604090205460ff166107ef5760405162461bcd60e51b815260040161062e90612204565b6012546013546040516323b872dd60e01b81523360048201526001600160a01b039182166024820152604481018590529116906323b872dd90606401602060405180830381600087803b15801561084557600080fd5b505af1158015610859573d6000803e3d6000fd5b505050506040513d601f19601f8201168201806040525081019061087d9190611feb565b506001600160a01b0384166000908152600d602052604090205460ff1680156108af5750336001600160a01b03851614155b156108d5576108d033856108cb85670de0b6b3a7640000612358565b611375565b6108f9565b6011546108f99033906001600160a01b03166108cb85670de0b6b3a7640000612358565b50505050565b6000828152600c602052604090206001015461091a8161135f565b6105fa8383611409565b6001600160a01b03811633146109945760405162461bcd60e51b815260206004820152602f60248201527f416363657373436f6e74726f6c3a2063616e206f6e6c792072656e6f756e636560448201526e103937b632b9903337b91039b2b63360891b606482015260840161062e565b6106b8828261148f565b60008381526005602052604090205483906001600160a01b03163314610a175760405162461bcd60e51b815260206004820152602860248201527f536f75726365206d75737420626520746865206f7261636c65206f6620746865604482015267081c995c5d595cdd60c21b606482015260840161062e565b60008181526005602052604080822080546001600160a01b03191690555182917f7cc135e0cebb02c3480ae5d74d377283180a2601f8f644edf7987b009316c63a91a2604080518481526020810184905285917f654e38d2a93112689c11f1c8b02342b0e0adab42ec9f0d00ea593cf9dd9ef8eb910160405180910390a250600a91909155600b5550565b600f54610aae8161135f565b506001600160a01b03166000908152600d60205260409020805460ff19166001179055565b6000610ae9600854306337d36fef60e01b6114f6565b9050610b2e604051806040016040528060068152602001651d5c9b1554d160d21b8152506040518060600160405280603f8152602001612499603f913983919061151b565b610b7d604051806040016040528060078152602001661c185d1a1554d160ca1b815250604051806040016040528060038152602001621554d160ea1b8152508361151b9092919063ffffffff16565b610bc16040518060400160405280600781526020016675726c4c494e4b60c81b8152506040518060600160405280604081526020016124596040913983919061151b565b610c1260405180604001604052806008815260200167706174684c494e4b60c01b815250604051806040016040528060048152602001634c494e4b60e01b8152508361151b9092919063ffffffff16565b6106b881600954611539565b600080601260009054906101000a90046001600160a01b03166001600160a01b03166318160ddd6040518163ffffffff1660e01b815260040160206040518083038186803b158015610c6f57600080fd5b505afa158015610c83573d6000803e3d6000fd5b505050506040513d601f19601f82011682018060405250810190610ca791906120a8565b905080610cdc610cb78280612358565b610cc2866002612358565b610ccd906005612358565b610cd79190612231565b611553565b610ce69190612377565b9392505050565b600f54610cf98161135f565b60005b82518110156105fa576001600d6000858481518110610d1d57610d1d61242c565b6020908102919091018101516001600160a01b03168252810191909152604001600020805460ff191691151591909117905580610d59816123d1565b915050610cfc565b600080601260009054906101000a90046001600160a01b03166001600160a01b03166318160ddd6040518163ffffffff1660e01b815260040160206040518083038186803b158015610db257600080fd5b505afa158015610dc6573d6000803e3d6000fd5b505050506040513d601f19601f82011682018060405250810190610dea91906120a8565b90506000610e0082670de0b6b3a7640000612231565b9050610e39670de0b6b3a7640000610e33600a610e1e6002876122ac565b610e296002876122ac565b610e339190612377565b906116be565b9250505090565b6007546001600160a01b03163314610e935760405162461bcd60e51b815260206004820152601660248201527526bab9ba10313290383937b837b9b2b21037bbb732b960511b604482015260640161062e565b600680546001600160a01b0319808216339081179093556007805490911690556040516001600160a01b03909116919082907f8be0079c531659141344cd1fd0a4f28419497f9722a3daafe3b4186f6b6457e090600090a350565b610ef66116ca565b6000610f0a6002546001600160a01b031690565b6040516370a0823160e01b81523060048201529091506001600160a01b0382169063a9059cbb90339083906370a082319060240160206040518083038186803b158015610f5657600080fd5b505afa158015610f6a573d6000803e3d6000fd5b505050506040513d601f19601f82011682018060405250810190610f8e91906120a8565b6040516001600160e01b031960e085901b1681526001600160a01b0390921660048301526024820152604401602060405180830381600087803b158015610fd457600080fd5b505af1158015610fe8573d6000803e3d6000fd5b505050506040513d601f19601f8201168201806040525081019061100c9190611feb565b61104d5760405162461bcd60e51b81526020600482015260126024820152712ab730b13632903a37903a3930b739b332b960711b604482015260640161062e565b50565b6000918252600c602090815260408084206001600160a01b0393909316845291905290205460ff1690565b6010546110878161135f565b60005b82518110156105fa576000600e60008584815181106110ab576110ab61242c565b6020908102919091018101516001600160a01b03168252810191909152604001600020805460ff1916911515919091179055806110e7816123d1565b91505061108a565b565b6000828152600c602052604090206001015461110c8161135f565b6105fa838361148f565b61111e6116ca565b61104d8161171d565b336000908152600d602052604090205460ff166111565760405162461bcd60e51b815260040161062e90612204565b60006111706103d3600a543461136990919063ffffffff16565b6013546040519192506001600160a01b0316903480156108fc02916000818181858888f193505050501580156111aa573d6000803e3d6000fd5b5060115461104d9033906001600160a01b031683611375565b606060006111d2836002612358565b6111dd906002612231565b67ffffffffffffffff8111156111f5576111f5612442565b6040519080825280601f01601f19166020018201604052801561121f576020820181803683370190505b509050600360fc1b8160008151811061123a5761123a61242c565b60200101906001600160f81b031916908160001a905350600f60fb1b816001815181106112695761126961242c565b60200101906001600160f81b031916908160001a905350600061128d846002612358565b611298906001612231565b90505b6001811115611310576f181899199a1a9b1b9c1cb0b131b232b360811b85600f16601081106112cc576112cc61242c565b1a60f81b8282815181106112e2576112e261242c565b60200101906001600160f81b031916908160001a90535060049490941c93611309816123ba565b905061129b565b508315610ce65760405162461bcd60e51b815260206004820181905260248201527f537472696e67733a20686578206c656e67746820696e73756666696369656e74604482015260640161062e565b61104d81336117c8565b6000610ce68284612358565b6012546001600160a01b0316633c173a4f8483856113948260196116be565b6040516001600160e01b031960e087901b1681526001600160a01b0394851660048201526024810193909352921660448201526064810191909152608401600060405180830381600087803b1580156113ec57600080fd5b505af1158015611400573d6000803e3d6000fd5b50505050505050565b6114138282611050565b6106b8576000828152600c602090815260408083206001600160a01b03851684529091529020805460ff1916600117905561144b3390565b6001600160a01b0316816001600160a01b0316837f2f8788117e7eff1d82e926ec794901d17c78024a50270940304540a733656f0d60405160405180910390a45050565b6114998282611050565b156106b8576000828152600c602090815260408083206001600160a01b0385168085529252808320805460ff1916905551339285917ff6391f5c32d9c69d2a47ea670b442974b53935d1edc7fd64eb21e047a839171b9190a45050565b6114fe611e71565b611506611e71565b6115128186868661182c565b95945050505050565b608083015161152a9083611869565b60808301516105fa9082611869565b600354600090610ce6906001600160a01b03168484611880565b60008161156257506000919050565b600182608081901c1561157a5760409190911b9060801c5b604081901c1561158f5760209190911b9060401c5b602081901c156115a45760109190911b9060201c5b601081901c156115b95760089190911b9060101c5b600881901c156115ce5760049190911b9060081c5b600481901c156115e35760029190911b9060041c5b600281901c156115f557600182901b91505b600182858161160657611606612416565b048301901c9150600182858161161e5761161e612416565b048301901c9150600182858161163657611636612416565b048301901c9150600182858161164e5761164e612416565b048301901c9150600182858161166657611666612416565b048301901c9150600182858161167e5761167e612416565b048301901c9150600182858161169657611696612416565b048301901c91506116b6828386816116b0576116b0612416565b04611913565b949350505050565b6000610ce68284612249565b6006546001600160a01b031633146110ef5760405162461bcd60e51b815260206004820152601660248201527527b7363c9031b0b63630b1363290313c9037bbb732b960511b604482015260640161062e565b6001600160a01b0381163314156117765760405162461bcd60e51b815260206004820152601760248201527f43616e6e6f74207472616e7366657220746f2073656c66000000000000000000604482015260640161062e565b600780546001600160a01b0319166001600160a01b03838116918217909255600654604051919216907fed8889f560326eb138920d842192f0eb3dd22b4f139c87a2c57538e05bae127890600090a350565b6117d28282611050565b6106b8576117ea816001600160a01b031660146111c3565b6117f58360206111c3565b6040516020016118069291906120ed565b60408051601f198184030181529082905262461bcd60e51b825261062e916004016121f1565b611834611e71565b6118448560800151610100611929565b50509183526001600160a01b031660208301526001600160e01b031916604082015290565b611876826003835161198e565b6105fa8282611a9d565b600454600090611891816001612231565b600455835160408086015160808701515191516000936320214ca360e11b936118c99386938493923092918a91600191602401612162565b60408051601f198184030181529190526020810180516001600160e01b03166001600160e01b031990931692909217909152905061190986838684611ac4565b9695505050505050565b60008183106119225781610ce6565b5090919050565b6040805180820190915260608152600060208201526119496020836123ec565b15611971576119596020836123ec565b611964906020612377565b61196e9083612231565b91505b506020828101829052604080518085526000815290920101905290565b60178167ffffffffffffffff16116119b3576108f98360e0600585901b168317611c31565b60ff8167ffffffffffffffff16116119f1576119da836018611fe0600586901b1617611c31565b506108f98367ffffffffffffffff83166001611c56565b61ffff8167ffffffffffffffff1611611a3057611a19836019611fe0600586901b1617611c31565b506108f98367ffffffffffffffff83166002611c56565b63ffffffff8167ffffffffffffffff1611611a7157611a5a83601a611fe0600586901b1617611c31565b506108f98367ffffffffffffffff83166004611c56565b611a8683601b611fe0600586901b1617611c31565b506108f98367ffffffffffffffff83166008611c56565b604080518082019091526060815260006020820152610ce683846000015151848551611c7c565b6040516bffffffffffffffffffffffff193060601b1660208201526034810184905260009060540160408051808303601f1901815282825280516020918201206000818152600590925291812080546001600160a01b0319166001600160a01b038a1617905590925082917fb5e6e01e79f91267dc17b4e6314d5d4d03593d2ceee0fbb452b750bd70ea5af99190a2600254604051630200057560e51b81526001600160a01b0390911690634000aea090611b87908890879087906004016121ca565b602060405180830381600087803b158015611ba157600080fd5b505af1158015611bb5573d6000803e3d6000fd5b505050506040513d601f19601f82011682018060405250810190611bd99190611feb565b6116b65760405162461bcd60e51b815260206004820152602360248201527f756e61626c6520746f207472616e73666572416e6443616c6c20746f206f7261604482015262636c6560e81b606482015260840161062e565b604080518082019091526060815260006020820152610ce68384600001515184611d66565b6040805180820190915260608152600060208201526116b6848560000151518585611dc2565b6040805180820190915260608152600060208201528251821115611c9f57600080fd5b6020850151611cae8386612231565b1115611ce157611ce185611cd187602001518786611ccc9190612231565b611e43565b611cdc906002612358565b611e5a565b600080865180518760208301019350808887011115611d005787860182525b505050602084015b60208410611d405780518252611d1f602083612231565b9150611d2c602082612231565b9050611d39602085612377565b9350611d08565b51815160001960208690036101000a019081169019919091161790525083949350505050565b60408051808201909152606081526000602082015283602001518310611d9b57611d9b8485602001516002611cdc9190612358565b835180516020858301018481535080851415611db8576001810182525b5093949350505050565b6040805180820190915260608152600060208201526020850151611de68584612231565b1115611dfa57611dfa85611cd18685612231565b60006001611e0a846101006122a0565b611e149190612377565b9050855183868201018583198251161781525080518487011115611e385783860181525b509495945050505050565b600081831115611e54575081610580565b50919050565b8151611e668383611929565b506108f98382611a9d565b6040805160a0810182526000808252602080830182905282840182905260608084018390528451808601909552845283015290608082015290565b80356001600160a01b0381168114611ec357600080fd5b919050565b600060208284031215611eda57600080fd5b610ce682611eac565b600080600060608486031215611ef857600080fd5b611f0184611eac565b9250611f0f60208501611eac565b9150604084013590509250925092565b60006020808385031215611f3257600080fd5b823567ffffffffffffffff80821115611f4a57600080fd5b818501915085601f830112611f5e57600080fd5b813581811115611f7057611f70612442565b8060051b604051601f19603f83011681018181108582111715611f9557611f95612442565b604052828152858101935084860182860187018a1015611fb457600080fd5b600095505b83861015611fde57611fca81611eac565b855260019590950194938601938601611fb9565b5098975050505050505050565b600060208284031215611ffd57600080fd5b81518015158114610ce657600080fd5b60006020828403121561201f57600080fd5b5035919050565b6000806040838503121561203957600080fd5b8235915061204960208401611eac565b90509250929050565b60008060006060848603121561206757600080fd5b505081359360208301359350604090920135919050565b60006020828403121561209057600080fd5b81356001600160e01b031981168114610ce657600080fd5b6000602082840312156120ba57600080fd5b5051919050565b600081518084526120d981602086016020860161238e565b601f01601f19169290920160200192915050565b7f416363657373436f6e74726f6c3a206163636f756e742000000000000000000081526000835161212581601785016020880161238e565b7001034b99036b4b9b9b4b733903937b6329607d1b601791840191820152835161215681602884016020880161238e565b01602801949350505050565b6001600160a01b0389811682526020820189905260408201889052861660608201526001600160e01b03198516608082015260a0810184905260c0810183905261010060e082018190526000906121bb838201856120c1565b9b9a5050505050505050505050565b60018060a01b038416815282602082015260606040820152600061151260608301846120c1565b602081526000610ce660208301846120c1565b602080825260139082015272165bdd49dc99481b9bdd081d995c9a599a5959606a1b604082015260600190565b6000821982111561224457612244612400565b500190565b60008261225857612258612416565b500490565b600181815b8085111561229857816000190482111561227e5761227e612400565b8085161561228b57918102915b93841c9390800290612262565b509250929050565b6000610ce683836122b7565b6000610ce660ff8416835b6000826122c657506001610580565b816122d357506000610580565b81600181146122e957600281146122f35761230f565b6001915050610580565b60ff84111561230457612304612400565b50506001821b610580565b5060208310610133831016604e8410600b8410161715612332575081810a610580565b61233c838361225d565b806000190482111561235057612350612400565b029392505050565b600081600019048311821515161561237257612372612400565b500290565b60008282101561238957612389612400565b500390565b60005b838110156123a9578181015183820152602001612391565b838111156108f95750506000910152565b6000816123c9576123c9612400565b506000190190565b60006000198214156123e5576123e5612400565b5060010190565b6000826123fb576123fb612416565b500690565b634e487b7160e01b600052601160045260246000fd5b634e487b7160e01b600052601260045260246000fd5b634e487b7160e01b600052603260045260246000fd5b634e487b7160e01b600052604160045260246000fdfe68747470733a2f2f6d696e2d6170692e63727970746f636f6d706172652e636f6d2f646174612f70726963653f6673796d3d455448267473796d733d4c494e4b68747470733a2f2f6d696e2d6170692e63727970746f636f6d706172652e636f6d2f646174612f70726963653f6673796d3d455448267473796d733d555344a264697066735822122092eec08a3e1c8f313f5cf81035952f4c4a3d00f12d42413bbf7de7bd390acac164736f6c6343000807003354a3c050e04f39f531ec7f1f412f379e03766712c010363fe2f6f3f9c4150a45",
    "linkReferences": {},
    "deployedLinkReferences": {}
}