{
    "_format": "hh-sol-artifact-1",
    "contractName": "Faucet",
    "sourceName": "contracts/revenueShare/Faucet.sol",
    "abi": [
        {
            "inputs": [],
            "stateMutability": "nonpayable",
            "type": "constructor"
        },
        {
            "anonymous": false,
            "inputs": [
                {
                    "indexed": true,
                    "internalType": "bytes32",
                    "name": "role",
                    "type": "bytes32"
                },
                {
                    "indexed": true,
                    "internalType": "bytes32",
                    "name": "previousAdminRole",
                    "type": "bytes32"
                },
                {
                    "indexed": true,
                    "internalType": "bytes32",
                    "name": "newAdminRole",
                    "type": "bytes32"
                }
            ],
            "name": "RoleAdminChanged",
            "type": "event"
        },
        {
            "anonymous": false,
            "inputs": [
                {
                    "indexed": true,
                    "internalType": "bytes32",
                    "name": "role",
                    "type": "bytes32"
                },
                {
                    "indexed": true,
                    "internalType": "address",
                    "name": "account",
                    "type": "address"
                },
                {
                    "indexed": true,
                    "internalType": "address",
                    "name": "sender",
                    "type": "address"
                }
            ],
            "name": "RoleGranted",
            "type": "event"
        },
        {
            "anonymous": false,
            "inputs": [
                {
                    "indexed": true,
                    "internalType": "bytes32",
                    "name": "role",
                    "type": "bytes32"
                },
                {
                    "indexed": true,
                    "internalType": "address",
                    "name": "account",
                    "type": "address"
                },
                {
                    "indexed": true,
                    "internalType": "address",
                    "name": "sender",
                    "type": "address"
                }
            ],
            "name": "RoleRevoked",
            "type": "event"
        },
        {
            "inputs": [
                {
                    "internalType": "uint256",
                    "name": "",
                    "type": "uint256"
                }
            ],
            "name": "Brooks",
            "outputs": [
                {
                    "internalType": "address",
                    "name": "",
                    "type": "address"
                }
            ],
            "stateMutability": "view",
            "type": "function"
        },
        {
            "inputs": [],
            "name": "DEFAULT_ADMIN_ROLE",
            "outputs": [
                {
                    "internalType": "bytes32",
                    "name": "",
                    "type": "bytes32"
                }
            ],
            "stateMutability": "view",
            "type": "function"
        },
        {
            "inputs": [],
            "name": "DisturbeFunds",
            "outputs": [
                {
                    "internalType": "uint256",
                    "name": "",
                    "type": "uint256"
                }
            ],
            "stateMutability": "nonpayable",
            "type": "function"
        },
        {
            "inputs": [],
            "name": "TotalBalance",
            "outputs": [
                {
                    "internalType": "uint256",
                    "name": "",
                    "type": "uint256"
                }
            ],
            "stateMutability": "view",
            "type": "function"
        },
        {
            "inputs": [],
            "name": "TotalDisturbed",
            "outputs": [
                {
                    "internalType": "uint256",
                    "name": "",
                    "type": "uint256"
                }
            ],
            "stateMutability": "view",
            "type": "function"
        },
        {
            "inputs": [
                {
                    "internalType": "address",
                    "name": "",
                    "type": "address"
                }
            ],
            "name": "balance",
            "outputs": [
                {
                    "internalType": "uint256",
                    "name": "",
                    "type": "uint256"
                }
            ],
            "stateMutability": "view",
            "type": "function"
        },
        {
            "inputs": [],
            "name": "decimals",
            "outputs": [
                {
                    "internalType": "uint256",
                    "name": "",
                    "type": "uint256"
                }
            ],
            "stateMutability": "view",
            "type": "function"
        },
        {
            "inputs": [
                {
                    "internalType": "bytes32",
                    "name": "role",
                    "type": "bytes32"
                }
            ],
            "name": "getRoleAdmin",
            "outputs": [
                {
                    "internalType": "bytes32",
                    "name": "",
                    "type": "bytes32"
                }
            ],
            "stateMutability": "view",
            "type": "function"
        },
        {
            "inputs": [
                {
                    "internalType": "bytes32",
                    "name": "role",
                    "type": "bytes32"
                },
                {
                    "internalType": "address",
                    "name": "account",
                    "type": "address"
                }
            ],
            "name": "grantRole",
            "outputs": [],
            "stateMutability": "nonpayable",
            "type": "function"
        },
        {
            "inputs": [
                {
                    "internalType": "bytes32",
                    "name": "role",
                    "type": "bytes32"
                },
                {
                    "internalType": "address",
                    "name": "account",
                    "type": "address"
                }
            ],
            "name": "hasRole",
            "outputs": [
                {
                    "internalType": "bool",
                    "name": "",
                    "type": "bool"
                }
            ],
            "stateMutability": "view",
            "type": "function"
        },
        {
            "inputs": [
                {
                    "internalType": "address",
                    "name": "id",
                    "type": "address"
                }
            ],
            "name": "info",
            "outputs": [
                {
                    "internalType": "uint256",
                    "name": "",
                    "type": "uint256"
                },
                {
                    "internalType": "uint256",
                    "name": "",
                    "type": "uint256"
                }
            ],
            "stateMutability": "view",
            "type": "function"
        },
        {
            "inputs": [
                {
                    "internalType": "address",
                    "name": "",
                    "type": "address"
                }
            ],
            "name": "percent",
            "outputs": [
                {
                    "internalType": "uint256",
                    "name": "",
                    "type": "uint256"
                }
            ],
            "stateMutability": "view",
            "type": "function"
        },
        {
            "inputs": [],
            "name": "recieve",
            "outputs": [],
            "stateMutability": "payable",
            "type": "function"
        },
        {
            "inputs": [
                {
                    "internalType": "bytes32",
                    "name": "role",
                    "type": "bytes32"
                },
                {
                    "internalType": "address",
                    "name": "account",
                    "type": "address"
                }
            ],
            "name": "renounceRole",
            "outputs": [],
            "stateMutability": "nonpayable",
            "type": "function"
        },
        {
            "inputs": [
                {
                    "internalType": "bytes32",
                    "name": "role",
                    "type": "bytes32"
                },
                {
                    "internalType": "address",
                    "name": "account",
                    "type": "address"
                }
            ],
            "name": "revokeRole",
            "outputs": [],
            "stateMutability": "nonpayable",
            "type": "function"
        },
        {
            "inputs": [
                {
                    "internalType": "bytes4",
                    "name": "interfaceId",
                    "type": "bytes4"
                }
            ],
            "name": "supportsInterface",
            "outputs": [
                {
                    "internalType": "bool",
                    "name": "",
                    "type": "bool"
                }
            ],
            "stateMutability": "view",
            "type": "function"
        },
        {
            "inputs": [],
            "name": "totalBalance",
            "outputs": [
                {
                    "internalType": "uint256",
                    "name": "",
                    "type": "uint256"
                }
            ],
            "stateMutability": "view",
            "type": "function"
        },
        {
            "inputs": [],
            "name": "totalDisturbed",
            "outputs": [
                {
                    "internalType": "uint256",
                    "name": "",
                    "type": "uint256"
                }
            ],
            "stateMutability": "view",
            "type": "function"
        },
        {
            "inputs": [
                {
                    "components": [
                        {
                            "internalType": "address",
                            "name": "id",
                            "type": "address"
                        },
                        {
                            "internalType": "uint256",
                            "name": "percent",
                            "type": "uint256"
                        }
                    ],
                    "internalType": "struct Faucet.Brook[]",
                    "name": "_brooks",
                    "type": "tuple[]"
                }
            ],
            "name": "updateBrooks",
            "outputs": [
                {
                    "internalType": "uint256",
                    "name": "",
                    "type": "uint256"
                }
            ],
            "stateMutability": "nonpayable",
            "type": "function"
        },
        {
            "inputs": [],
            "name": "withdraw",
            "outputs": [],
            "stateMutability": "payable",
            "type": "function"
        }
    ],
    "bytecode": "0x6080604052620f42406003556004805460ff1916905534801561002157600080fd5b5061002d6000336100a5565b6040805180820182523380825260035460208084019182526007805460018101825560009182527fa66cc928b5edb82af9bd49922954155ab7b0942694bea4ce44661d9a8736c6880180546001600160a01b031916909417909355905192516001600160a01b03168252600690529190912055610151565b6100af82826100b3565b5050565b6000828152602081815260408083206001600160a01b038516845290915290205460ff166100af576000828152602081815260408083206001600160a01b03851684529091529020805460ff1916600117905561010d3390565b6001600160a01b0316816001600160a01b0316837f2f8788117e7eff1d82e926ec794901d17c78024a50270940304540a733656f0d60405160405180910390a45050565b61121a806101606000396000f3fe60806040526004361061011e5760003560e01c8063786312bd116100a0578063d547741f11610064578063d547741f14610301578063e3364b9c14610321578063e3d670d714610336578063ee3cd82514610363578063f4baeec61461039057600080fd5b8063786312bd1461029957806391d14854146102af578063a217fddf146102cf578063a9e10bf2146102e4578063ad7a672f146102ec57600080fd5b80632f2ff15d116100e75780632f2ff15d14610224578063313ce5671461024657806336568abe1461025c5780633ccfd60b1461027c5780634bb161761461028457600080fd5b80620c43971461012357806301ffc9a71461014c5780630aae7a6b1461017c5780631e5eaa2c146101d4578063248a9ca3146101f4575b600080fd5b34801561012f57600080fd5b5061013960015481565b6040519081526020015b60405180910390f35b34801561015857600080fd5b5061016c610167366004610f83565b6103c8565b6040519015158152602001610143565b34801561018857600080fd5b506101bf610197366004610eae565b6001600160a01b03166000908152600560209081526040808320546006909252909120549091565b60408051928352602083019190915201610143565b3480156101e057600080fd5b506101396101ef366004610ec9565b6103ff565b34801561020057600080fd5b5061013961020f366004610f3e565b60009081526020819052604090206001015490565b34801561023057600080fd5b5061024461023f366004610f57565b6105ce565b005b34801561025257600080fd5b5061013960035481565b34801561026857600080fd5b50610244610277366004610f57565b6105f8565b610244610676565b34801561029057600080fd5b506101396107f6565b3480156102a557600080fd5b5061013960025481565b3480156102bb57600080fd5b5061016c6102ca366004610f57565b6109e0565b3480156102db57600080fd5b50610139600081565b610244610a09565b3480156102f857600080fd5b50600154610139565b34801561030d57600080fd5b5061024461031c366004610f57565b610a22565b34801561032d57600080fd5b50600254610139565b34801561034257600080fd5b50610139610351366004610eae565b60056020526000908152604090205481565b34801561036f57600080fd5b5061013961037e366004610eae565b60066020526000908152604090205481565b34801561039c57600080fd5b506103b06103ab366004610f3e565b610a47565b6040516001600160a01b039091168152602001610143565b60006001600160e01b03198216637965db0b60e01b14806103f957506301ffc9a760e01b6001600160e01b03198316145b92915050565b60008061040b81610a71565b6000610415610a7e565b9050806104615760405162461bcd60e51b81526020600482015260156024820152746572726f7220696e20636c6561722042726f6f6b7360581b60448201526064015b60405180910390fd5b6000805b8581101561052157610503878783818110610482576104826111b8565b9050604002018036038101906104989190610fad565b80516007805460018101825560009182527fa66cc928b5edb82af9bd49922954155ab7b0942694bea4ce44661d9a8736c6880180546001600160a01b0319166001600160a01b0393841617905560208084018051945190931682526006905260409020919091555190565b61050d90836110ba565b91508061051981611171565b915050610465565b506007546105675760405162461bcd60e51b8152602060048201526013602482015272776f6e2774207570646174652062726f6f6b7360681b6044820152606401610458565b60035481146105c45760405162461bcd60e51b815260206004820152602360248201527f53756d206f662070657263656e742073686f756c6420626520657175616c203160448201526230302560e81b6064820152608401610458565b5092949350505050565b6000828152602081905260409020600101546105e981610a71565b6105f38383610b8a565b505050565b6001600160a01b03811633146106685760405162461bcd60e51b815260206004820152602f60248201527f416363657373436f6e74726f6c3a2063616e206f6e6c792072656e6f756e636560448201526e103937b632b9903337b91039b2b63360891b6064820152608401610458565b6106728282610c0e565b5050565b60045460ff16156106bc5760405162461bcd60e51b815260206004820152601060248201526f5265656e7472616e63792053746f702160801b6044820152606401610458565b6004805460ff19166001179055336000908152600560205260409020546107255760405162461bcd60e51b815260206004820152601c60248201527f596f7572206661756365742062616c616e636520697320656d707479000000006044820152606401610458565b336000908152600560205260408120546002805491928392610748908490611113565b90915550503360009081526005602052604081205560015460025461076d91906110ba565b6107778247611113565b146107bb5760405162461bcd60e51b8152602060048201526014602482015273536f6d657468696e672077656e742077726f6e6760601b6044820152606401610458565b604051339082156108fc029083906000818181858888f193505050501580156107e8573d6000803e3d6000fd5b50506004805460ff19169055565b60045460009060ff161561083f5760405162461bcd60e51b815260206004820152601060248201526f5265656e7472616e63792053746f702160801b6044820152606401610458565b6004805460ff191660019081179091555461089c5760405162461bcd60e51b815260206004820181905260248201527f596f7520686176656e277420616e797468696e6720746f2044697374757262656044820152606401610458565b60015460005b600754811015610978576000600782815481106108c1576108c16111b8565b60009182526020808320909101546003546001600160a01b0390911680845260069092526040832054919350610902916108fc908790610c73565b90610c86565b905080600160008282546109169190611113565b90915550506001600160a01b038216600090815260056020526040812080548392906109439084906110ba565b92505081905550806002600082825461095c91906110ba565b925050819055505050808061097090611171565b9150506108a2565b5060015460025461098991906110ba565b47146109ce5760405162461bcd60e51b8152602060048201526014602482015273536f6d657468696e672077656e742077726f6e6760601b6044820152606401610458565b50506007546004805460ff1916905590565b6000918252602082815260408084206001600160a01b0393909316845291905290205460ff1690565b3460016000828254610a1b91906110ba565b9091555050565b600082815260208190526040902060010154610a3d81610a71565b6105f38383610c0e565b60078181548110610a5757600080fd5b6000918252602090912001546001600160a01b0316905081565b610a7b8133610c92565b50565b6000805b600754811015610adc5760006006600060078481548110610aa557610aa56111b8565b60009182526020808320909101546001600160a01b0316835282019290925260400190205580610ad481611171565b915050610a82565b505b60075415610b1e576007805480610af757610af76111a2565b600082815260209020810160001990810180546001600160a01b0319169055019055610ade565b60075415610b825760405162461bcd60e51b815260206004820152602b60248201527f536f6d657468696e672077656e742077726f6e6720696e20636c65722062726f60448201526a6f6b732070726f6365737360a81b6064820152608401610458565b506007541590565b610b9482826109e0565b610672576000828152602081815260408083206001600160a01b03851684529091529020805460ff19166001179055610bca3390565b6001600160a01b0316816001600160a01b0316837f2f8788117e7eff1d82e926ec794901d17c78024a50270940304540a733656f0d60405160405180910390a45050565b610c1882826109e0565b15610672576000828152602081815260408083206001600160a01b0385168085529252808320805460ff1916905551339285917ff6391f5c32d9c69d2a47ea670b442974b53935d1edc7fd64eb21e047a839171b9190a45050565b6000610c7f82846110f4565b9392505050565b6000610c7f82846110d2565b610c9c82826109e0565b61067257610cb4816001600160a01b03166014610cf6565b610cbf836020610cf6565b604051602001610cd0929190611012565b60408051601f198184030181529082905262461bcd60e51b825261045891600401611087565b60606000610d058360026110f4565b610d109060026110ba565b67ffffffffffffffff811115610d2857610d286111ce565b6040519080825280601f01601f191660200182016040528015610d52576020820181803683370190505b509050600360fc1b81600081518110610d6d57610d6d6111b8565b60200101906001600160f81b031916908160001a905350600f60fb1b81600181518110610d9c57610d9c6111b8565b60200101906001600160f81b031916908160001a9053506000610dc08460026110f4565b610dcb9060016110ba565b90505b6001811115610e43576f181899199a1a9b1b9c1cb0b131b232b360811b85600f1660108110610dff57610dff6111b8565b1a60f81b828281518110610e1557610e156111b8565b60200101906001600160f81b031916908160001a90535060049490941c93610e3c8161115a565b9050610dce565b508315610c7f5760405162461bcd60e51b815260206004820181905260248201527f537472696e67733a20686578206c656e67746820696e73756666696369656e746044820152606401610458565b80356001600160a01b0381168114610ea957600080fd5b919050565b600060208284031215610ec057600080fd5b610c7f82610e92565b60008060208385031215610edc57600080fd5b823567ffffffffffffffff80821115610ef457600080fd5b818501915085601f830112610f0857600080fd5b813581811115610f1757600080fd5b8660208260061b8501011115610f2c57600080fd5b60209290920196919550909350505050565b600060208284031215610f5057600080fd5b5035919050565b60008060408385031215610f6a57600080fd5b82359150610f7a60208401610e92565b90509250929050565b600060208284031215610f9557600080fd5b81356001600160e01b031981168114610c7f57600080fd5b600060408284031215610fbf57600080fd5b6040516040810181811067ffffffffffffffff82111715610ff057634e487b7160e01b600052604160045260246000fd5b604052610ffc83610e92565b8152602083013560208201528091505092915050565b7f416363657373436f6e74726f6c3a206163636f756e742000000000000000000081526000835161104a81601785016020880161112a565b7001034b99036b4b9b9b4b733903937b6329607d1b601791840191820152835161107b81602884016020880161112a565b01602801949350505050565b60208152600082518060208401526110a681604085016020870161112a565b601f01601f19169190910160400192915050565b600082198211156110cd576110cd61118c565b500190565b6000826110ef57634e487b7160e01b600052601260045260246000fd5b500490565b600081600019048311821515161561110e5761110e61118c565b500290565b6000828210156111255761112561118c565b500390565b60005b8381101561114557818101518382015260200161112d565b83811115611154576000848401525b50505050565b6000816111695761116961118c565b506000190190565b60006000198214156111855761118561118c565b5060010190565b634e487b7160e01b600052601160045260246000fd5b634e487b7160e01b600052603160045260246000fd5b634e487b7160e01b600052603260045260246000fd5b634e487b7160e01b600052604160045260246000fdfea2646970667358221220fb397f1a998647d43a5b191e80c9fe66dcb574c5e5527a72fa948ed5bc1af34f64736f6c63430008070033",
    "linkReferences": {},
    "deployedLinkReferences": {}
}